0000000111022005                                                                                                                                                                                                           
000000020110083000002004CLARIVALDE VERSOLATTO         M15091934109771120 RUA PRINCESA MARIA AMELIA, 28        NOVA PETROPOLI SAO BERNARDO DO CAMPO SP4330-3635                                 3149957         03508544834 
000000030110083000002012IRANY PASIN VERSOLATO         F19051934109771120 RUA PRINCESA MARIA AMELIA, 28        NOVA PETROPOLI SAO BERNARDO DO CAMPO SP4330-3635                                 4434618                     
000000040110083000002900ALERCIA PASIN V. ROSSANEZ     F11081965109771120 RUA PRINCESA MARIA AMELIA, 28        NOVA PETROPOLI SAO BERNARDO DO CAMPO SP4330-3635                                 11804968                    
000000050110083000002918DAIANA VERSOLATTO ROSSANEZ    F14021985209820480 RUA DAS LARANJEIRAS, 1391 AP.        DEMARCHI       SAO BERNARDO DO CAMPO SP753-6337                                  328635765                   
000000060110083000002926STEVEN VERSOLATTO ROSSANEZ    M07101988209820480 RUA DAS LARANJEIRA, 1391 AP.1        DEMARCHI       SAO BERNARDO DO CAMPO SP753-6337                                  328635777                   
000000070110083000003000ANTONIO BATISTA DA SILVA      M06121942109090230 RUA MARECHAL HERMES, 417  APT        JARDIM         SANTO ANDRE           SP4992.5099/                                2889804         05458560868 
000000080110083000004007OTTO JOAO GUSTAVO BETHKE      M27111924109726110 AVENIDA NACOES UNIDAS, 561 AP        CHACARA INGLES SAO BERNARDO DO CAMPO SP4123-6345                                 496128          01673580815 
000000090110083000004015ANTONIETA DA MONTEIRA BETHKE  F03111935109260110 AVENIDA NACOES UNIDAS, 561 AP        CHACARA INGLES SAO BERNARDO DO CAMPO SP458-6345                                  3319141         04576368826 
000000100110083000004902ANGELICA DA MONTEIRA REIS     F01081975209726110 AVENIDA NACOES UNIDAS, 561 AP        CHACARA INGLES SAO BERNARDO DO CAMPO SP4123-6345                                 226864170                   
000000110110083000005003MARIA APARECIDA BARBOSA       F03021925309721120 RUA DOMICIANO ROSSI, 138 AP.2        CHACARA INGLES SAO BERNARDO DO CAMPO SP452-5485                                  5671450         03220643841 
000000120110083000008002JAIR BOTELHO FRAZAO           M02071936109710160 RUA CLARA BASSANI, 74                CENTRO         SAO BERNARDO DO CAMPO SP4330-4672                                 2097169         41292944820 
000000130110083000008010ISABEL OSTROVSKY FRAZAO       F12081937109710160 RUA CLARA BASSANI, 74                CENTRO         SAO BERNARDO DO CAMPO SP4330-4672                                 3875551         16356119896 
000000140110083000008908ALEXANDRE ALBERTO B. FRAZAO   M22071971209710160 RUA CLARA BASSANI, 74                CENTRO         SAO BERNARDO DO CAMPO SP4330-4672                                 19493096        15538978893 
000000150110083000008916JOAO PEDRO MAMEDE FRAZAO      M19112001209710160 RUA CLARA BASSANI, 74                CENTRO         SAO BERNARDO DO CAMPO SP4330-4672                                 2097169         41292944820 
000000160110083000008924JOSE CARLOS MAMEDE FRAZAO     M29042004209820130 RUA FERDINANDO DEMARCHI, 111         VILA VALDIBIA  SAO BERNARDO DO CAMPO SP4347-7833                                 2097169                     
000000170110083000008932RAFAEL FRAZAO SILVEIRA        M05042000209820130 RUA FERDINANDO DEMARCHI, 111         DEMARCHI       SAO BERNARDO DO CAMPO SP4396-6988                                 2097169         41292944820 
000000180110083000009009ESTHER MARIA B. M. DA COSTA   F21111934311040140 RUA BENJAMIN CONSTANT, 02 AP         EMBARE         SANTOS                SP(013) 3231                                1771915         03509028872 
000000190110083000009904MARIA AUGUSTA M. DA COSTA     F06021974211065120 RUA ALAGOAS, 53 - ALTOS              GONZAGA        SANTOS                SP(013) 284-                                23036705        17362861885 
000000200110083000009912MARIA AUXILIADORA M. DA COSTA F16051958311055310 RUA DR ASSIS CORREA, 63 AP 14        GONZAGA        SANTOS                SP(013) 232-                                5623602         03489382846 
000000210110083000009920GABRIELA M. DA C. DEPIANTE    F10091991211040140 RUA BENJAMIN CONSTANT, 02 AP         EMBARE         SANTOS                SP(013) 231-                                1771915                     
000000220110083000009939CAROLINA M. DA C. DEPIANTE    F28101994211040140 RUA BENJAMIN CONSTANT, 02 AP         EMBARE         SANTOS                SP(013) 231-                                1771915                     
000000230110083000009947FERNANDA MONTEIRO VERGARA     F23111984211055310 RUA DR ASSIS CORREA, 63 AP 14        GONZAGA        SANTOS                SP(013) 232-                                1771915                     
000000240110083000009955PAULO MONTEIRO VERGARA        M17051986211055310 RUA DR ASSIS CORREA, 63 AP 14        GONZAGA        SANTOS                SP(013) 232-                                1771915                     
000000250110083000009963HENRIQUE MONTEIRO VERGARA     M02061992211055310 RUA DR ASSIS CORREA, 63 AP 14        GONZAGA        SANTOS                SP(013) 232-                                1771915                     
000000260110083000011003IVANI AMATO DE ALMEIDA        F29111945309812450 AV JOAO FIRMINO, 1602 AP 72 7        ASSUNCAO       SAO BERNARDO DO CAMPO SP4109-2366                                 4194479         19260929881 
000000270110083000012000ALAIDE DE OLIVEIRA HORTA      F17021947309780390 RUA SENADOR M OLIMPIO DE MELL        NOVA PETROPOLI SAO BERNARDO DO CAMPO SP756-5613                                  12578654        09196216867 
000000280110083000012905AMANDA BARBOSA HORTA          F02121974209780390 RUA SENADOR M OLIMPIO DE MELL        NOVA PETROPOLI SAO BERNARDO DO CAMPO SP756-5613                                  219306588       15540516818 
000000290110083000013006IVANI DANTE FRANCO            F20061944309710140 RUA SÃO BERNARDO, 63  APTO 12        CENTRO         SAO BERNARDO DO CAMPO SP4123-0001                                 4642249         05494915891 
000000300110083000014002MARIA DE LOURDES CARDOSO      F18041927309771130 AL. PRINCESA MARIA DA GLORIA,        NOVA PETROPOLI SAO BERNARDO DO CAMPO SP4122-3966                                 16997494        25971128884 
000000310110083000017001JAIR INACIO GOMES DA SILVA    M29091944109732340 RUA LUIZ FERREIRA DA SILVA, 5        PQ.SAO DIOGO   SAO BERNARDO DO CAMPO SP4330-2558                                 3687589         05423643872 
000000320110083000017010REGINA CELIA FALATO DA SILVA  F14081948109732340 RUA LUIZ FERREIRA DA SILVA, 5        PQ.SAO DIOGO   SAO BERNARDO DO CAMPO SP4330-2558                                 5564475         04270654880 
000000330110083000017907JORGE LUIS FALATO DA SILVA    M22081966409732340 RUA LUIZ FERREIRA DA SILVA, 5        PQ.SAO DIOGO   SAO BERNARDO DO CAMPO SP4330-2558                                 14033074        08299402867 
000000340110083000017915MARCEL LUIS FALATO DA SILVA   M10041972209732340 RUA LUIZ FERREIRA DA SILVA, 5        PQ.SAO DIOGO   SAO BERNARDO DO CAMPO SP4330-2558                                 179336605       15541516862 
000000350110083000019004MOACIR PIRANI                 M20121937109760750 RUA BELARMINO FRANCISCO VASCO        BAETA NEVES    SAO BERNARDO DO CAMPO SP452-1636                                  2050893         21045089320 
000000360110083000019012LUZIA GRILLO PIRANI           F13121937109760750 RUA BELARMINO FRANCISCO VASCO        BAETA NEVES    SAO BERNARDO DO CAMPO SP452-1636                                  11538617        26621341865 
000000370110083000020002ROBERTO FRAIANELLI            M13051935109771210 AV. WALLACE SIMONSEN, 478            NOVA PETROPOLI SAO BERNARDO DO CAMPO SP4330-3884                                 2232252         05048648820 
000000380110083000020010JAYNE PERES FRAIANELLI        F08041937109771210 AV. WALLACE SIMONSEN, 478            NOVA PETROPOLI SAO BERNARDO DO CAMPO SP4330-3884                                 26311859        25810237835 
000000390110083000020908EMERSON FRAIANELLI            M03111971209771210 AV. WALLACE SIMONSEN, 478            NOVA PETROPOLI SAO BERNARDO DO CAMPO SP4330-3884                                 19559057        13991065894 
000000400110083000020916RICARDO FRAIANELLI            M22101966209771210 AV. WALLACE SIMONSEN, 478            NOVA PETROPOLI SAO BERNARDO DO CAMPO SP4330-3884                                 15919485        12451351802 
000000410110083000021009MARIA ANITA DE O. FANTINATI   F28121951304279030 RUA HERMANIA,95                      VL.VERMELHA    SAO PAULO             SP9593-6025                                 19326150                    
000000420110083000022005ANTONIO PRIETO MOLINA         M19091944104183070 RUA FRANCISCO BAUTISTA, 499          JD.SANTA EMILI SAO PAULO             SP6331-1663                                 3236856                     
000000430110083000022013ROSANA RITA RUOTOLO MOLINA    F22071958104183070 RUA FRANCISCO BAUTISTA, 499          JD SANTA EMILI SAO PAULO             SP6331-1663                                 6953942         92200222815 
000000440110083000022609LEANDRO RUOTOLO MOLINA        M20041994204183070 RUA FRANCISCO BAUTISTA, 499          JD.SANTA EMILI SAO PAULO             SP6331-1663                                 6953942                     
000000450110083000024008HUMBERTO PEGO MARQUES         M29011933109771120 RUA PRINCESA MARIA AMELIA, 19        NOVA PETROPOLI SAO BERNARDO DO CAMPO SP4330-4245                                 2269809         05816815849 
000000460110083000024016BERNARDETE DE A. M. MARQUES   F10061940109771120 RUA PRINCESA MARIA AMELIA, 19        NOVA PETROPOLI SAO BERNARDO DO CAMPO SP4330-4245                                 2320598         05816815849 
000000470110083000024903LOURDES DE ALMEIDA MELCHERT   F14061917209771120 RUA PRINCESA MARIA AMELIA, 19        NOVA PETROPOLI SAO BERNARDO DO CAMPO SP4330-4245                                 15383034        40084000872 
000000480110083000028003SEBASTIAO FRANCELOSO          M17011932309810390 RUA DAS ORQUIDEAS, 696               VILA MARCHI    SAO BERNARDO DO CAMPO SP4351-2672                                 3861969         06202446820 
000000490110083000029000LUIZ FERNANDES                M19041932101551080 RUA ARI CAJADO, 190                  VL MONUMENTO   SAO PAULO             SP6163-9246                                 1707712                     
000000500110083000029905LUIZ FERNANDO DE S. FERNANDES M08031967201551080 RUA ARI CAJADO, 190                  VL MONUMENTO   SAO PAULO             SP6163-9246                                 15436374                    
000000510110083000037002FERNANDA RAMAZZINA VANZELLA   F21041947309770330 AL. DONA THERESA CRISTINA, 82        NOVA PETROPOLI SAO BERNARDO DO CAMPO SP448-5980                                  930707                      
000000520110083000037908ALESSANDRA VANZELLA           F31011972209770330 AL. DONA THERESA CRISTINA, 82        NOVA PETROPOLI SAO BERNARDO DO CAMPO SP448-5980                                  112580038                   
000000530110083000037916EMANOELA VANZELLA             F29091977209770330 AL. DONA THERESA CRISTINA, 82        NOVA PETROPOLI SAO BERNARDO DO CAMPO SP448-5980                                  266251249                   
000000540110083000038009VICENTE ALVES BITU            M26051937109770400 RUA FLAMINIO DE CASTRO RANGEL        NOVA PETROPOLI SAO BERNARDO DO CAMPO SP4330-3994                                 2266571         07001886815 
000000550110083000038017MARLENE NATALINA BONICIO BITU F19121943109770400 RUA FLAMINIO DE CASTRO RANGEL        NOVA PETROPOLI SAO BERNARDO DO CAMPO SP4330-3994                                 11201345                    
000000560110083000040003CACIA MATTOS WENTZCOVITCH     F28051925309070200 AL.CAMPESTRE, 553 AP 44              CAMPESTRE      SANTO ANDRE           SP4991-5080                                 10919101        00890520801 
000000570110083000041000JAYME MONTEIRO DA COSTA       M24041935109725530 RUA PRESIDENTE DUTRA, 15  APT        VL EUCLIDES    SAO BERNARDO DO CAMPO SP4330-4714                                 2205534         04194454804 
000000580110083000041018MARIA YARA B. M. DA COSTA     F07091940109725530 RUA PRESIDENTE DUTRA, 15  APT        VL EUCLIDES    SAO BERNARDO DO CAMPO SP4330-4714                                 2703381                     
000000590110083000042006VALTER BORALLI                M09031940109726120 RUA DOMICIANO ROSSI, 138 AP.4        CHACARA INGLES SAO BERNARDO DO CAMPO SP4125-6964                                 2801705         05078504834 
000000600110083000042014SANDRA IVONE WIERING BORALLI  F17101945109726121 RUA DOMICIANO ROSSI, 138 AP.4        CHACARA INGLES SAO BERNARDO DO CAMPO SP4125-6964                                 7620859         88250776887 
000000610110083000042901SILUA BORALLI ARSUFFI         F10021972109726121 RUA DOMICIANO ROSSI, 138 AP.4        CHACARA INGLES SAO BERNARDO DO CAMPO SP4125-6964                                 19161256        14003814878 
000000620110083000042910FERDINAND JOSEF WIERING       M03011917109770280 RUA DA IMPERATRIZ, 129   APTO        NOVA PETROPOLI SAO BERNARDO DO CAMPO SP448-4812                                  1996171         04192010844 
000000630110083000042928ANTONIO FELICIO ARSUFFI       M12021967109726120 RUA DOMICIANO ROSSI, 138 AP.4        CHACARA INGLES SAO BERNARDO DO CAMPO SP4125-6964                                 2801705         05078504834 
000000640110083000042936MURILO BORALLI ARSUFFI        M10122002209770280 RUA DA IMPERATRIZ, 129  APTO         NOVA PETROPOLI SAO BERNARDO DO CAMPO SP4125-4812                                 19161256                    
000000650110083000043002CLARICE SABATINI BODINI       F13071945409715000 RUA JOAO PESSOA, 215 AP. 122         CENTRO         SAO BERNARDO DO CAMPO SP4330-3408                                 4539003         03544737868 
000000660110083000049000GERALDO SEBASTIANI            M19041945309770430 RUA PRINCESA ANTONIA, 354            NOVA PETROPOLI SAO BERNARDO DO CAMPO SP4125-8017                                 4334659         03638227804 
000000670110083000049906BRENO BATTISTIN SEBASTIANI    M07041978209770430 RUA PRINCESA ANTONIA, 354            NOVA PETROPOLI SAO BERNARDO DO CAMPO SP4125-8017                                 28569764                    
000000680110083000049914BIANCA BATTISTIN SEBASTIANI   F20021981209770430 RUA PRINCESA ANTONIA, 354            NOVA PETROPOLI SAO BERNARDO DO CAMPO SP4125-8017                                 285697651       29983936836 
000000690110083000050009ANA FRAZAO                    F13061929311025021 RUA TORRES HOMEM, 675 AP. 44         APARECIDA      SANTOS                SP(***013) 3                                12464921                    
000000700110083000053008LUIZA DE CAMPOS SIMIONATO     F21091923309725650 RUA CORAL, 257                       JD. DO MAR     SAO BERNARDO DO CAMPO SP4330-2134                                 3090713         14929606800 
000000710110083000054004ANTONIA GALANTE VIAL          F01061936309715030 RUA BELA VISTA, 180 AP 52 5º         CENTRO         SAO BERNARDO DO CAMPO SP458-8854                                  5509036         18036166879 
000000720110083000057003RUBEM STUCKER                 M12011948109830110 ESTRADA DO RIO ACIMA, 8260 -         RIACHO GRANDE  SAO BERNARDO DO CAMPO SP9678-5347                                 4156113         05061687868 
000000730110083000058000LUCY MARIA DE ABREU PRICOLI   F25081943309715000 RUA JOAO PESSOA, 259 AP. 62          CENTRO         SAO BERNARDO DO CAMPO SP4125-2483/                                5170121         02874547891 
000000740110083000062007MARIA GONCALVES DE SOUZA      F22091929309781190 RUA BARTIRA, 199                     VILA DO TANQUE SAO BERNARDO DO CAMPO SP414-2880                                  14264912                    
000000750110083000063003ARNALDO ANTONIO SERRANO       M19111935109725700 RUA JOAO PASIN, 36                   JARDIM AMERICA SAO BERNARDO DO CAMPO SP4330-2428                                 3199990         03558037804 
000000760110083000063011LUZIA TONETO SERRANO          F16121936109725700 RUA JOAO PASIN, 36                   JARDIM AMERICA SAO BERNARDO DO CAMPO SP4330-2428                                 4501106         00618658858 
000000770110083000063909GABRIELA DE SOUZA SERRANO     F06061994209725700 RUA ANGELO DUZZI, 114                VL.DUZZI       SAO BERNARDO DO CAMPO SP4330-3683                                 18968150                    
000000780110083000064000LEONOR DE AZEVEDO M. MIGUEL   F11041945309770240 RUA ANDRE RITUCCI, 35                STA.TEREZINHA  SAO BERNARDO DO CAMPO SP4335-4705                                 6130333         14931903851 
000000790110083000065006INARDINA GAMEZ LEITE          F10041927309725520 RUA ANUNCIATA GOBBI, 282             VL EUCLIDES    SAO BERNARDO DO CAMPO SP4337-3578                                 5809052                     
000000800110083000066002OLIVIA AUGUSTA CAVALCANTI     F22021944209770351 RUA PAULO AFONSO, 955 AP. 21         NOVA PETROPOLI SAO BERNARDO DO CAMPO SP4121-2391                                 3236659         05802679891 
000000810110083000067009BATISTA BUENO SUSTER          F16121932309770420 AV. IMPERADOR PEDRO II, 261 A        NOVA PETROPOLI SAO BERNARDO DO CAMPO SP7670-1560                                 14497211        1803517288  
000000820110083000068005PEDRO DE CARVALHO             M14071943109861620 RUA INACIO PEDÓ, 487                 ASSUNÇÃO       SAO BERNARDO DO CAMPO SP3423-2183/                                3300468                     
000000830110083000068013MARIA JOSE M. DA S. CARVALHO  F31121955109861620 RUA INACIO PEDÓ, 487                 ASSUNÇÃO       SAO BERNARDO DO CAMPO SP3423-2183/                                7237353                     
000000840110083000068609LUIS FELIPE DE CARVALHO       M30071987209861620 RUA INACIO PEDÓ, 487                 ASSUNÇÃO       SAO BERNARDO DO CAMPO SP3423-2183/                                3300468                     
000000850110083000068617SAMIRA LARISSA DE CARVALHO    F23091989209861620 RUA INACIO PEDÓ, 487                 ASSUNÇÃO       SAO BERNARDO DO CAMPO SP3423-2183/                                3300468                     
000000860110083000068900JOSE CARLOS DE CARVALHO       M07021949109861660 RUA CESAR FELICE BATISTIN, 12        JD BRASILANDIA SAO BERNARDO DO CAMPO SP4351-5723                                 4202227         35940824820 
000000870110083000068919CAROLINE HELOISE DE CARVALHO  F11061984209812180 RUA ROLANDO MARIO RAMACIOTTI,        PARQUE ESPACIA SAO BERNARDO DO CAMPO SP3423-2183                                 3300468                     
000000880110083000069001HELIO JOSE MAGGIORINO GARATTI M13091930101546010 RUA INGLÊS DE SOUZA,  268  AP        VL. DEODORO    SAO PAULO             SP6163-1397                                 2111649         05124271868 
000000890110083000069010MERCEDES FANANI GARATTI       F24051941101546010 RUA INGLÊS DE SOUZA,  268  AP        VL. DEODORO    SAO PAULO             SP6163-1397                                 2630915                     
000000900110083000070000OLYMPIO FREGONEZI             M26071933309710215 TRAV. MUNICIPAL, 86  APTO 53         CENTRO         SAO BERNARDO DO CAMPO SP4330-8601                                 2415977         06795510859 
000000910110083000071006JAIRO CANDIDO                 M27101942309080300 RUA DAS FIGUEIRAS, 494               JARDIM         SANTO ANDRE           SP4438-2337                                 2909692                     
000000920110083000072002JOAO EVANGELISTA COELHO       M19091942109751290 RUA BOM JARDIM, 89                   BAETA NEVES    SAO BERNARDO DO CAMPO SP4330-3278                                 2889854         05460166853 
000000930110083000072010VANDA APARECIDA ALBERTO COELH F04021950109751290 RUA BOM JARDIM, 89                   BAETA NEVES    SAO BERNARDO DO CAMPO SP4330-3278                                 5325111         24771279853 
000000940110083000072908CATIA REGINA COELHO           F12101976209751290 RUA BOM JARDIM, 89                   BAETA NEVES    SAO BERNARDO DO CAMPO SP4330-3278                                 279300827       26895584838 
000000950110083000072916FERNANDO HENRIQUE COELHO      M09051983209751290 RUA BOM JARDIM, 89                   BAETA NEVES    SAO BERNARDO DO CAMPO SP4330-3278                                 430058081                   
000000960110083000074005OSWALDO BENTO BRUNI           M18051935113250000 CAIXA POSTAL, 209                    CENTRO         ITATIBA               SP(011) 7806                                3006214                     
000000970110083000074013CARMEN SILVIA EDUARDO P. BRUN F04081964113250000 CAIXA POSTAL, 209                    CENTRO         ITATIBA               SP(011) 7806                                15919181                    
000000980110083000074900ELZA FERREIRA BRUNI           F16021936513250000 CAIXA POSTAL, 209                    CENTRO         ITATIBA               SP(011) 7806                                7653621                     
000000990110083000074919PAULO CESAR BRUNI             M15051970213250000 CAIXA POSTAL, 209                    CENTRO         ITATIBA               SP7806-7107                                 18887058                    
000001000110083000074927ANA MARIA BRUNI               F09061955413250000 CAIXA POSTAL, 209                    CENTRO         ITATIBA               SP(011) 7806                                76536208        05654073842 
000001010110083000075001JOSE ROBERTO COPPINI          M19071946109770380 RUA VINTE DE AGOSTO, 32              VL. DELMIRA    SAO BERNARDO DO CAMPO SP4337-1006                                 3781771         03544206820 
000001020110083000075010SUELI DE SOUZA PEREIRA COPPIN F31011951109770380 RUA VINTE DE AGOSTO, 32              VL. DELMIRA    SAO BERNARDO DO CAMPO SP4337-1006                                 4878915                     
000001030110083000075907DANILO PEREIRA COPPINI        M25091975209770380 RUA VINTE DE AGOSTO, 32              VL. DELMIRA    SAO BERNARDO DO CAMPO SP4125-8963                                 24613650                    
000001040110083000075915LARISSA PEREIRA COPPINI       F11121982218031440 RUA  PROF.JOSE ODIN ARRUDA, 7        JD. STA. LUCIN SOROCABA              SP232-5098                                  3781771                     
000001050110083000075923VICTOR PEREIRA COPPINI        M14031984209770380 RUA VINTE DE AGOSTO, 32              VL. DELMIRA    SAO BERNARDO DO CAMPO SP4125-8963                                 3781771                     
000001060110083000076008JOSE CARLOS SOARES DE OLIVEIR M14031946109725310 RUA DO CRUZEIRO, 581 AP. 74 7        VILA DUZI      SAO BERNARDO DO CAMPO SP4123-3653                                 3412084         03541150815 
000001070110083000076016SUELI RODRIGUES SOARES        F14111949109725310 RUA DO CRUZEIRO, 581 AP. 74 7        VILA DUZI      SAO BERNARDO DO CAMPO SP4123-3653                                 4808023         24663030866 
000001080110083000076903MURILO SOARES DE OLIVEIRA     M15031979209725310 RUA DO CRUZEIRO, 581 AP. 74 7        VILA DUZI      SAO BERNARDO DO CAMPO SP458-3653 /                                299872658       28429689800 
000001090110083000077004AIDE IFIGENIA BONICIO         F20011941109811000 RUA ANA MARIA MARTINEZ, 351          ASSUNCAO       SAO BERNARDO DO CAMPO SP4351-5877                                 4194591         38631490849 
000001100110083000077900LUIS ANSELMO MENDES           M12121967209811000 RUA ANA MARIA MARTINEZ, 351          ASSUNCAO       SAO BERNARDO DO CAMPO SP4351-5877                                 8127770         08481465810 
000001110110083000078000ANTONIO ATILIO GIACOMI        M08081936109811370 RUA HEIZO NAKANO, 44 AP 34 BL        JERUSALEM      SAO BERNARDO DO CAMPO SP4109-9870/                                1946582         04668634891 
000001120110083000078906VICTOR CORREIA GIACOMI        M18022000209811370 RUA HEIZO NAKANO, 44 AP 34 BL        JERUSALEM      SAO BERNARDO DO CAMPO SP4109-9870                                 1946582                     
000001130110083000079007ADEMAR DE FARIAS              M31081939109726100 RUA MYRIAN DORA ROSSI, 70 AP         CHACARA INGLES SAO BERNARDO DO CAMPO SP4125-2126                                 3206212         04188535849 
000001140110083000080005EVENCIO COPPINI               M13071930109780060 RUA ANDRE COPPINI, 307               VL. COPPINI    SAO BERNARDO DO CAMPO SP4127-4865                                 2270718         12217530887 
000001150110083000080013ZAIRA CANTARELLI COPPINI      F26121932409780060 RUA ANDRE COPPINI, 307               VL. COPPINI    SAO BERNARDO DO CAMPO SP4127-4865                                 11258868        06952663819 
000001160110083000080900CIBELE SMANIOTTI COPPINI      F09101990209780060 RUA ANDRE COPPINI, 28                VL. COPPINI    SAO BERNARDO DO CAMPO SP4127-4865                                 474449622                   
000001170110083000080919RICARDO JOSE COPPINI          M13041962209780060 RUA ANDRE COPPINI, 307               VL. COPPINI    SAO BERNARDO DO CAMPO SP4127-4865                                 7714304         06032944808 
000001180110083000082008JOSE ENSINAS BUJARDON         M04101934104151000 RUA FREI ROLIN, 51  AP 81 8º         BOSQUE DA SAUD SAO PAULO             SP5058-6221                                 2043624         00437085872 
000001190110083000082016VANDA ENSINAS                 F12031937104151000 RUA FREI ROLIN, 51  AP 81 8º         BOSQUE DA SAUD SAO PAULO             SP5058-6221                                 5933287                     
000001200110083000083004SALATIEL FERRAZ DO AMARAL NET M30111940109190530 TRAVESSA DOS PRACINHAS, 55           VILA GILDA     SANTO ANDRE           SP4426-4215                                 2781324         05122732868 
000001210110083000083012NEUSA BARCHI DO AMARAL        F01111945109190530 TRAVESSA DOS PRACINHAS, 55           VILA GILDA     SANTO ANDRE           SP4426-4215                                 4630799         04877004815 
000001220110083000083900SALATIEL FERRAZ DO AMARAL     M06041975209190530 TRAVESSA DOS PRACINHAS, 55           VILA GILDA     SANTO ANDRE           SP449-4215                                  246177068       16768893882 
000001230110083000083918CRISTINA FERRAZ DO AMARAL     F04021982209190530 TRAVESSA DOS PRACINHAS, 55           VILA GILDA     SANTO ANDRE           SP4426-4215                                 30334201                    
000001240110083000083926IRENE GIBIM DO AMARAL         F22061920309190530 TRAVESSA DOS PRACINHAS, 55           VILA GILDA     SANTO ANDRE           SP4426-4215                                 1429142         63715414804 
000001250110083000087000OVIDIO PRIETO FERNANDES       M06091943409720610 RUA SECONDO MODOLIN, 120  APT        VILA GONÇALVES SAO BERNARDO DO CAMPO SP4339-2284                                 3358057         05062314887 
000001260110083000087905PIERRE ANDRE MANTOVANI        M10051975209811100 RUA MIOSÓTIS, 176                    ASSUNÇÃO       SAO BERNARDO DO CAMPO SP4351-6906                                 18148293        25258857832 
000001270110083000087913EDNA LIMA MANTOVANI           F21091950409811100 RUA MIOSÓTIS, 176                    ASSUNÇÃO       SAO BERNARDO DO CAMPO SP4351-6906                                 6953008                     
000001280110083000088006EDMUNDO CENSON                M28051919309751330 AV. APARECIDA, 367                   BAETA NEVES    SAO BERNARDO DO CAMPO SP4351-4455                                 42227264                    
000001290110083000090000APARECIDA HELENA PINTO PINOTT F13081942309780430 RUA MARIO NARCISO STOCCO, 101        JD PALERMO     SAO BERNARDO DO CAMPO SP4125-5129                                 5720405         14014256820 
000001300110083000090906ARNALDO JOSE PINTO            M31071954209751050 RUA JOÃO LUIS BONINI, 43             VILA BRASILIA  SAO BERNARDO DO CAMPO SP4125-5129                                 78059240        86157302887 
000001310110083000091007AGOSTINHO JOSE DE ABREU       M21051947113564090 RUA JOAO RAMALHO, 430                SANTA PAULA    SAO CARLOS            SP(016)271-9                                4100872         21094934887 
000001320110083000091015VILMA PAGIATTO DE ABREU       F23071950113564090 RUA JOAO RAMALHO, 430                SANTA PAULA    SAO CARLOS            SP(016)271-9                                6851423                     
000001330110083000092003JOAO BATISTA SATIRO           M24061946409725280 RUA DARIO BECHARA, 32                VILA DUZZI     SAO BERNARDO DO CAMPO SP4121-1218                                 4107785         05065038872 
000001340110083000092909MARIA TERESA DA SILVA         F08041949509725280 RUA DARIO BECHARA, 32                VILA DUZZI     SAO BERNARDO DO CAMPO SP4121-1218                                 5603443         28999565823 
000001350110083000092917FABRICIA SATIRO               F04011977209725280 RUA DARIO BECHARA, 32                VILA DUZZI     SAO BERNARDO DO CAMPO SP4121-1218                                 217709011       26465731894 
000001360110083000093000EDVARD CASTRO                 M17061939109732570 RUA OLEGARIO HERCULANO, 380          VILA DAYSE     SAO BERNARDO DO CAMPO SP4125-7619                                 2838348         04197020830 
000001370110083000093018WILMA MARTINS CASTRO          F02031941109732570 RUA OLEGARIO HERCULANO, 380          VILA DAYSE     SAO BERNARDO DO CAMPO SP4125-7619                                 227926444       21449188800 
000001380110083000093905NADIA APARECIDA CASTRO CAMURC F28061979109732570 RUA OLEGARIO HERCULANO, 380          VILA DAYSE     SAO BERNARDO DO CAMPO SP4332-7031                                 295783412       27771025897 
000001390110083000094006PEDRO RUBENS COPPINI BLUM     M24121944109770590 RUA DOMINGOS LENTINI, 60  AP         JD.W.SIMONSEN  SAO BERNARDO DO CAMPO SP4330-2528                                 3384650                     
000001400110083000094014MARIA ARLETE BIZAM BLUM       F10071946109770590 RUA DOMINGOS LENTINI, 60  AP         JD.W.SIMONSEN  SAO BERNARDO DO CAMPO SP4330-2528                                 3594219                     
000001410110083000094901ARTHUR BIZAM BLUM             M14111981209770590 RUA DOMINGOS LENTINI, 60  AP         JD.W.SIMONSEN  SAO BERNARDO DO CAMPO SP4330-2528                                 230645434       22254486802 
000001420110083000094910FREDERICO BIZAM BLUM          M11121982209770590 RUA DOMINGOS LENTINI, 60  AP         JD W SIMONSEN  SAO BERNARDO DO CAMPO SP4330-2528                                 23064424                    
000001430110083000095002JOAO PINTO SOBRINHO           M13111941109812050 RUA BENEDITO MASSAROPE, 159          JD. LAVINIA    SAO BERNARDO DO CAMPO SP4109-5631                                 3015218                     
000001440110083000095010ODETE JACOMINO PINTO          F24071942109812050 RUA BENEDITO MASSAROPE, 159          JD. LAVINIA    SAO BERNARDO DO CAMPO SP4109-5631                                 4416501                     
000001450110083000095908MILDRE LORAINE PINTO          F18111973209812050 RUA BENEDITO MASSAROPE, 159          JD. LAVINIA    SAO BERNARDO DO CAMPO SP4109-5631                                 21770063                    
000001460110083000095916NILTON EDUARDO PINTO          M18061976209812050 RUA BENEDITO MASSAROPE, 159          JD. LAVINIA    SAO BERNARDO DO CAMPO SP4109-5631                                 21770062                    
000001470110083000095924FREDERICO JOAO FABRICIO PINTO M22011981209812050 RUA BENEDITO MASSAROPE, 159          JD. LAVINIA    SAO BERNARDO DO CAMPO SP4109-5631                                 222141852                   
000001480110083000096009VERA LUCIA DE OLIVEIRA SILOS  F16101943409750490 RUA BALTICO, 245                     JARDIM DO MAR  SAO BERNARDO DO CAMPO SP4330-7438                                 4117915                     
000001490110083000096904DEBORA DELEGA                 F09081975209750490 RUA BALTICO, 245                     JARDIM DO MAR  SAO BERNARDO DO CAMPO SP4330-7438                                 26105422                    
000001500110083000096912PHELIPPO DE SOUZA DELEGA      M02111995209750490 RUA BALTICO, 245                     JARDIM DO MAR  SAO BERNARDO DO CAMPO SP4330-7438                                 4117915                     
000001510110083000096920RAFAEL DELEGA ALVES           M20042001209750490 RUA BALTICO, 245                     JARDIM DO MAR  SAO BERNARDO DO CAMPO SP4330-7438                                 261054223                   
000001520110083000099008JOSE CARLOS DE ARAUJO         M14091945109771110 ALAMEDA PRINCESA IZABEL, 185         NOVA PETROPOLI SAO BERNARDO DO CAMPO SP4122-2775                                 3461160         05046718804 
000001530110083000099016TEREZINHA DE ARAUJO           F09011948109771110 ALAMEDA PRINCESA IZABEL, 185         NOVA PETROPOLI SAO BERNARDO DO CAMPO SP4122-2775                                 3826088                     
000001540110083000099601PATRICK DE ARAUJO BARROZO     M20121988209771110 ALAMEDA PRINCESA IZABEL, 185         NOVA PETROPOLI SAO BERNARDO DO CAMPO SP4122-2775                                 3461160                     
000001550110083000099903PATRICIA CARLA G. DE ARAÚJO   F23021973109771110 ALAMEDA PRINCESA IZABEL, 185         NOVA PETROPOLI SAO BERNARDO DO CAMPO SP4332-2214                                 230663436       14938176807 
000001560110083000099911JOSE CARLOS DE ARAUJO JUNIOR  M27121976209771110 ALAMEDA PRINCESA IZABEL, 185         NOVA PETROPOLI SAO BERNARDO DO CAMPO SP4332-2214                                 27905413        25467960890 
000001570110083000100006HENRIQUE OSWALDO MARANESI     M24021929109751250 AV GETULIO VARGAS, 50 AP 94          BAETA NEVES    SAO BERNARDO DO CAMPO SP4123-1024/                                2520409         01667246887 
000001580110083000100014DIRCE PERIGO MARANESI         F10091929109751250 AV GETULIO VARGAS, 50 AP 94          BAETA NEVES    SAO BERNARDO DO CAMPO SP4123-1024/                                3043858         21442985801 
000001590110083000101002ANA MARIA PELLER              F23021948409726410 RUA CONTINENTAL, 910  APTO 10        ANCHIETA       SAO BERNARDO DO CAMPO SP4125-8138                                 3980979         12450558870 
000001600110083000101908MIGUEL PELLER                 M09081914109619100 RUA ERNESTO AUGUSTO CLETO, 47        RUDGE RAMOS    SAO BERNARDO DO CAMPO SP4125-8138                                 614542                      
000001610110083000101916NATALINA CREPALDI PELLER      F03091919109619100 RUA ERNESTO AUGUSTO CLETO, 47        RUDGE RAMOS    SAO BERNARDO DO CAMPO SP4125-8138                                 614541                      
000001620110083000101096ANTONINO MONTEIRO DE BRITTO   M26071944109726410 RUA CONTINENTAL, 910  APTO 10        ANCHIETA       SAO BERNARDO DO CAMPO SP4125-8138                                 4243933                     
000001630110083000102009OSWALDO THOME                 M03071942109634000 RUA JACQUEY, 313                     RUDGE RAMOS    SAO BERNARDO DO CAMPO SP4368-3099                                 3441331         05497272800 
000001640110083000102017ROSEMARI OGALLA THOME         F12071948109634000 RUA JACQUEY, 313                     RUDGE RAMOS    SAO BERNARDO DO CAMPO SP4368-3099                                 51444902        25018827840 
000001650110083000102904RENATA THOME                  F24021975209634000 RUA JACQUEY, 313                     RUDGE RAMOS    SAO BERNARDO DO CAMPO SP4368-3099                                 220222745       18021618809 
000001660110083000103005EDNA CLETO                    F09081941204016001 RUA FRANCA PINTO, 220                VILA MARIANA   SAO PAULO             SP5579-3682/                                2696463         05496764815 
000001670110083000104001IRACY GASPERINI DUSSIN        F09071940309810390 RUA DAS ORQUIDEAS, 199 AP 32         VL MARCHI      SAO BERNARDO DO CAMPO SP4352-5353/                                8767780                     
000001680110083000104907MAURICIO DUSSIN               M13081963109810390 RUA DAS ORQUIDEAS, 199 AP 32         VL MARCHI      SAO BERNARDO DO CAMPO SP4352-5353                                 14774991                    
000001690110083000104915SANDRA APARECIDA DA LUZ DUSSI F28021964109810390 RUA DAS ORQUIDEAS, 199 AP 32         VL MARCHI      SAO BERNARDO DO CAMPO SP4352-5353                                 14032711                    
000001700110083000104923LUCAS DUSSIN                  M25061997209810390 RUA DAS ORQUIDEAS, 199 AP 32         VL MARCHI      SAO BERNARDO DO CAMPO SP4352-5353                                 3078114                     
000001710110083000104931MAIRA DUSSIN                  F05041999209810390 RUA DAS ORQUIDEAS, 199 AP 32         VL MARCHI      SAO BERNARDO DO CAMPO SP4352-5353                                 14032711                    
000001720110083000105008AMPHILOPHIO CARLOS BARBOSA    M08011940109760370 RUA GIACINTO TOGNATO, 196 AP.        BAETA NEVES    SAO BERNARDO DO CAMPO SP4123-0341                                 5097988         05043611804 
000001730110083000105016JOANINA ANTONIA P. BARBOSA    F08081947109760370 RUA GIACINTO TOGNATO, 196 AP.        BAETA NEVES    SAO BERNARDO DO CAMPO SP4123-0341                                 13709098                    
000001740110083000105903ANA BEATRIZ B. P .C. DE SOUZA F10091999209760370 RUA GIACINTO TOGNATO, 196 AP.        BAETA NEVES    SAO BERNARDO DO CAMPO SP458-0341                                  303624541                   
000001750110083000105911CAROLINA NARA BARBOSA         F13081979209760370 RUA GIACINTO TOGNATO, 196 AP.        BAETA NEVES    SAO BERNARDO DO CAMPO SP4123-0341                                 303624541       29229428809 
000001760110083000107000CARMEN FIDELIS FRANCO BUENO   F27011931309832210 RUA VINA DEL MAR, 1015               JD BRASILANDIA SAO BERNARDO DO CAMPO SP4351-1694                                 7281500         25998101839 
000001770110083000107906LETICIA DIAS NEMETH           F03091997209832210 RUA VINA DEL MAR, 1015               JD BRASILANDIA SAO BERNARDO DO CAMPO SP4351-1694                                 7281500                     
000001780110083000108007GILCA APARECIDA CRUZ DE LIMA  F13071941309710000 AV. FRANCISCO PRESTES MAIA, 3        CENTRO         SAO BERNARDO DO CAMPO SP4330-4339                                 3941221         07745395852 
000001790110083000109003ANTONIO NILO RIZZO            M01011938109726100 RUA MYRIAM DORA ROSSI, 70 AP         CHACARA INGLES SAO BERNARDO DO CAMPO SP4122-3406                                 2038176         03739465891 
000001800110083000109011MARIA LEONOR GIACON RIZZO     F29061934109726100 RUA MYRIAM DORA ROSSI, 70 AP         CHACARA INGLES SAO BERNARDO DO CAMPO SP4122-3406                                 3143347                     
000001810110083000110001ISIDIO BATTISTINI             M19111938109715030 RUA BELA VISTA, 83                   VL. A. MARQUES SAO BERNARDO DO CAMPO SP4330-4556                                 2820233         05118522820 
000001820110083000110010DIRCE LOTTO BATTISTINI        F01111942109715030 RUA BELA VISTA, 83                   VL. A. MARQUES SAO BERNARDO DO CAMPO SP4330-4556                                 5789454         27897603814 
000001830110083000110907LUDIA DEMARCHI BATTISTINI     F07051909309715030 RUA BELA VISTA, 83                   VL. A. MARQUES SAO BERNARDO DO CAMPO SP4330-4556                                 749057          06003710853 
000001840110083000110915ALICE BATTISTINI              F18051979209715030 RUA BELA VISTA, 83                   VL. A. MARQUES SAO BERNARDO DO CAMPO SP4330-4556                                 265510661       27892736859 
000001850110083000112004MARCELINA GOUVEIA TREVISAN    F16011947309771280 ALAMEDA DOM PEDRO DE ALCANTAR        NOVA PETROPOLI SAO BERNARDO DO CAMPO SP4330-4725                                 4256003         02885463856 
000001860110083000112900ADRIANA GOUVEIA TREVISAN      F17121974409771280 ALAMEDA DOM PEDRO DE ALCANTAR        NOVA PETROPOLI SAO BERNARDO DO CAMPO SP4330-4725                                 21770437                    
000001870110083000112918MARIA DA CANHA GOUVEIA        F10121919309771280 ALAMEDA DOM PEDRO DE ALCANTAR        NOVA PETROPOLI SAO BERNARDO DO CAMPO SP4330-4725                                 2977165                     
000001880110083000112926MARCELO GOUVEIA TREVISAN      M19101978209770280 ALAMEDA DOM PEDRO DE ALCANTAR        NOVA PETROPOLI SAO BERNARDO DO CAMPO SP4330-4725                                 246666006       27393829878 
000001890110083000112934SERGIO TREVISAN JUNIOR        M17081972204553000 RUA LEONARDO SETUBAL, 22             CENTRO         ITACARE               BA(**73) 251                                217704384       14924031801 
000001900110083000113000LUZIA DE MORAES EBOLI         F28061939309715370 RUA QUIRINO DE LIMA, 41 AP 02        CENTRO         SAO BERNARDO DO CAMPO SP4335-3131                                 6185701         24718322880 
000001910110083000113906HENRIQUE SHIRATORI            M28041979209720290 RUA ODEON, 3                         CENTRO         SAO BERNARDO DO CAMPO SP4335-3131                                 226608335       28353616858 
000001920110083000117006ARTUR BARBOSA HORTA           M21111939209810260 AV. JOAO FIRMINO, 1229 AP 25         ASSUNCAO       SAO BERNARDO DO CAMPO SP419-1271                                  3176217         03498247891 
000001930110083000118002EPHIGENIA DA CUNHA BATTISTINI F21091931309861780 RUA IDA BERTOLO CHIAVEGATO, 4        ASSUNÇÃO       SAO BERNARDO DO CAMPO SP4351-5424                                 5588956         04573077812 
000001940110083000118908DEBORA MOREIRA DA CUNHA       F20091938209715030 RUA BELA VISTA, 101                  CENTRO         SAO BERNARDO DO CAMPO SP4125-4982                                 11358712        50329820834 
000001950110083000120007APARECIDA CATELAN RUSIG       F20101940109770090 RUA ANGELO PICOLLI, 253              CENTRO         SAO BERNARDO DO CAMPO SP4330-3954                                 4382120         00852245882 
000001960110083000120090RENATO RUSIG                  M14011943109770090 RUA ANGELO PICOLLI, 253              CENTRO         SAO BERNARDO DO CAMPO SP4330-3954                                 3635834         06068120830 
000001970110083000120902ALEXANDRE RUSIG               M09031968112490970 CH 1019 - SITIO CERRO DA LUA         SERRANO        SÃO BENTO DO SAPUCAÍ  SP                                          17460544        12452559830 
000001980110083000120910GUSTAVO RUSIG                 M01021971209770090 RUA ANGELO PICOLLI, 253              CENTRO         SAO BERNARDO DO CAMPO SP4330-3954                                 21771004        16169040890 
000001990110083000121003SERGIO KLIS                   M17051934109732550 RUA REGINALDO DE LIMA, 299           ANCHIETA       SAO BERNARDO DO CAMPO SP4330-1152                                 1614203         05047404820 
000002000110083000121011BEATRIZ KLIS                  F25061937109732550 RUA REGINALDO DE LIMA, 299           PQ.SAO DIOGO   SAO BERNARDO DO CAMPO SP443-1152                                  7128781                     
000002010110083000121909RENAN KLIS                    M01101993209750390 RUA JOSE MEZA MENDONÇA, 114          JD. DO MAR     SAO BERNARDO DO CAMPO SP4124-6536                                 488016927                   
000002020110083000121917MARCOS EDUARDO KLIS           M15041965109750390 RUA JOSE MEZA MENDONÇA, 114          JD. DO MAR     SAO BERNARDO DO CAMPO SP4124-6536                                 14036715        05196179836 
000002030110083000121925CLAUDIA SICA KLIS             F09011964109750390 RUA MEZA MENDONÇA, 114               JD. DO MAR     SAO BERNARDO DO CAMPO SP4124-6536                                 156339754       05690758825 
000002040110083000121933LEONARDO KLIS                 M21041988209750390 RUA JOSE MEZA MENDONÇA, 114          JD. DO MAR     SAO BERNARDO DO CAMPO SP4125-6536                                 413331600                   
000002050110083000122000LOT PAIVA                     M14081932109770070 RUA OLINDA, 164  AP 63 - 4º A        NOVA PETROPOLI SAO BERNARDO DO CAMPO SP4122-5290                                 4204703         03745864891 
000002060110083000122018ODETTE ARAUJO DE PAIVA        F23051936109770070 RUA OLINDA, 164  AP 63 - 4º A        NOVA PETROPOLI SAO BERNARDO DO CAMPO SP4122-5290                                 4225016         41442989815 
000002070110083000122905MARIA TIROTTI DE ARAUJO       F19051910109770070 RUA OLINDA, 164  AP 42 - 4º A        NOVA PETROPOLI SAO BERNARDO DO CAMPO SP4122-5290                                 10513972        06109761842 
000002080110083000123006ROBERTO PROSPERO              M30121939109725270 RUA ANGELO DUZI, 47                  VILA DUSI      SAO BERNARDO DO CAMPO SP414-3929                                  2770034         04196791891 
000002090110083000123901THAIS HELENA BLUM PROSPERO    F11031979209725270 RUA ANGELO DUZI, 47                  VILA DUSI      SAO BERNARDO DO CAMPO SP414-3929                                  30722371                    
000002100110083000124002ADILSON MARCANDALLI           M18021940109770272 AV. IMPERATRIZ LEOPOLDINA, 47        NOVA PETROPOLI SAO BERNARDO DO CAMPO SP4330-2251                                 2777825         06178952872 
000002110110083000124010SUELY AURELIA M. MARCANDALLI  F25091942109770272 AV. IMPERATRIZ LEOPOLDINA, 47        NOVA PETROPOLI SAO BERNARDO DO CAMPO SP4330-2251                                 4501088         16356549807 
000002120110083000125009ALCIDES TOME                  M20051943109735460 RUA DO SACRAMENTO, 249               RUDGE RAMOS    SAO BERNARDO DO CAMPO SP457-4041                                  3015837         04670540882 
000002130110083000125017SUELI DOS ANJOS LOPES TOME    F19061949109735460 RUA DO SACRAMENTO, 249               RUDGE RAMOS    SAO BERNARDO DO CAMPO SP457-4041                                  4206184         04670540882 
000002140110083000127001LUIZ ANTONIO VERTEMATI        M04121938109780000 RUA TIRADENTES, 118                  CENTRO         SAO BERNARDO DO CAMPO SP4127-6895                                 2697241         03640639804 
000002150110083000127605ADRIANA LEANDRO VERTEMATI     F06041973209780000 RUA TIRADENTES, 118                  CENTRO         SAO BERNARDO DO CAMPO SP4127-6895                                 16997419        03640639804 
000002160110083000127010ROSANA DE O. ALVES VERTEMATI  F04081967109780000 RUA TIRADENTES, 118                  CENTRO         SAO BERNARDO DO CAMPO SP756-6895                                  198835541                   
000002170110083000127613PRISCILA PEDROSO MONTEIRO     F10111999209780000 RUA TIRADENTES, 118                  CENTRO         SAO BERNARDO DO CAMPO SP4127-6895                                 2697241                     
000002180110083000127621FERNANDA PEDROSO MONTEIRO     F11082001209780000 RUA TIRADENTES, 118                  CENTRO         SAO BERNARDO DO CAMPO SP4127-6895                                 2697241                     
000002190110083000127630FABIANA PEDROSO MONTEIRO      F25102002209780000 RUA TIRADENTES, 118                  CENTRO         SAO BERNARDO DO CAMPO SP4127-6895                                 2697241                     
000002200110083000129004DIRCE DE LIMA ROGER           F29061943309861160 AV.MOINHO FABRINI,592 AP.124         JD FENIX       SAO BERNARDO DO CAMPO SP4392-7131                                 10402272        14015071824 
000002210110083000130002OLIVIO BENEDITO ESCUDEIRO     M28111939409770070 RUA OLINDA, 247  AP 44               VL DELMIRO     SAO BERNARDO DO CAMPO SP4331-1570                                 2909582                     
000002220110083000130908ANA LUCIA ESCUDEIRO           F04061971209770070 RUA OLINDA, 247  AP 44               VL DELMIRO     SAO BERNARDO DO CAMPO SP4331-1570                                 22792918                    
000002230110083000130916BASELISA FREITAS              F15041940509770070 RUA OLINDA, 247  AP 44               VL DELMIRO     SAO BERNARDO DO CAMPO SP4331-1570                                 2573298                     
000002240110083000131009OSMAR SETEMBRINO TONDI        M21091923109770340 RUA PRINCESA FRANCISCA CAROLI        NOVA PETROPOLI SAO BERNARDO DO CAMPO SP448-3684                                  1285683         03508765849 
000002250110083000131017ANERES ROSA RIBEIRO TONDI     F01031934109770340 RUA PRINCESA FRANCISCA CAROLI        NOVA PETROPOLI SAO BERNARDO DO CAMPO SP448-3684                                  4294224                     
000002260110083000132005MARIA LUCIA DIAS              F31081942209781220 RUA TIRADENTES, 1837   BL 8          JD IRAJA       SAO BERNARDO DO CAMPO SP4127-2922                                 5260351         03738515887 
000002270110083000133001MARLENE MAFALDA               F24031943209860000 AV. ROBERT KENNEDY, 3585 - AP        ASSUNÇÃO       SAO BERNARDO DO CAMPO SP4351-6728                                 6851207                     
000002280110083000134008HIDEKO TANAKA PREZOTO         F22061943117516610 RUA DR. AUGUSTO BARRETO, 441         MARIA ISABEL   MARILIA               SP(014)422-2                                4163234         05121116853 
000002290110083000134091ISMAEL PREZOTO                M26071947117516610 RUA DR. AUGUSTO BARRETO, 441         MARIA ISABEL   MARILIA               SP(014)422-2                                3572493         16968859815 
000002300110083000134601THALITA PREZOTO GARCIA        F01121996217516610 RUA DR. AUGUSTO BARRETO, 441         MARIA ISABEL   MARILIA               SP(014)422-2                                18474877                    
000002310110083000134610GIOVANNA PREZOTO GARCIA       F11081999217516610 RUA DR. AUGUSTO BARRETO, 441         MARIA ISABEL   MARILIA               SP(014)422-2                                18474877                    
000002320110083000134903ANTONIO PREZOTO NETO          M16051979289251640 RUA DOMINGOS RODRIGUES DA NOV        CANTRO-SUL     JARAGUÁ DO SUL        SP(014)422-2                                184748781                   
000002330110083000134911FABIOLA PRISCILA PREZOTO      F12101980217516610 RUA DR. AUGUSTO BARRETO, 441         MARIA ISABEL   MARILIA               SP(014)422-2                                184748793                   
000002340110083000139000RITA ANGELA ZINCAGLIA         F28071930409726100 RUA MIRIAM DORA ROSSI, 70 AP         JD. DO MAR     SAO BERNARDO DO CAMPO SP4123-0559                                 1618478         06796036891 
000002350110083000140008RENE LUIZ CASSETTARI          M21011927111025200 RUA ALEXANDRE MARTINS, 25  AP        APARECIDA      SANTOS                SP(***013) 3                                4805758         06944469804 
000002360110083000140016NEIDE GADINI CASSETTARI       F09091933111025200 RUA ALEXANDRE MARTINS, 25  AP        APARECIDA      SANTOS                SP(***013) 3                                2369498                     
000002370110083000142000CLEUZA GNAN DA SILVA          F01081944113910000 AL. DOS LIMÕES, 177  CONDOMIN        TRÊS PONTES    MONTE ALEGRE DO SUL   SP0**19 3807                                4490276         05125340804 
000002380110083000142094JOÃO JOSÉ DA SILVA            M24061943113907000 AL. DOS LIMÕES, 177  CONDOMIN        TRÊS PONTES    AMPARO                SP(***19) 38                                4267699         03543102834 
000002390110083000142906MARCELO AUGUSTO SILVA         M12081973222250040 PRAIA DE BOTAFOGO, 460  APTO         BOTAFOGO       RIO DE JANEIRO        RJ(21) 8756-                                171761510       18181729846 
000002400110083000142914LUCIENE CRISTINA SILVA        F25041975209726121 RUA DOMICIANO ROSSI, 270  APT        CHÁCARA INGLES SAO BERNARDO DO CAMPO SP4125-5636                                 171761522       24640910819 
000002410110083000142922JOAO VINICIUS SILVA           M19051980213900000 ALAMEDA DOS LIMOES, 1778             TRES PONTES    AMPARO                SP(***19) 38                                307144768       28154881837 
000002420110083000144003ANTONIO NUNES DE SOUZA        M20031926109862130 RUA ALZIRA, 230                      JD AURORA      SAO BERNARDO DO CAMPO SP4392-8716                                 4284943         03557669815 
000002430110083000144011MARIA MARQUES DOS S. SOUZA    F02071954109862130 RUA ALZIRA, 230                      JD AURORA      SAO BERNARDO DO CAMPO SP4392-8716                                 3275739         62493272587 
000002440110083000145000MUNIR GELEILETE               M28111941109080320 RUA VITORIA REGIA, 231  AP 11        CAMPESTRE      SANTO ANDRE           SP4991-7413                                 2285414         03739201800 
000002450110083000145018MARIA JOSE MAGALHAES GELEILET F04071946109080320 RUA VITORIA REGIA, 231  AP 11        CAMPESTRE      SANTO ANDRE           SP4991-7413                                 3537100                     
000002460110083000149005ANGELINA CANTARELLI           F04011928209780060 RUA ANDRE COPPINI, 307               VILA COPPINI   SAO BERNARDO DO CAMPO SP4127-4865                                 7129450         05545935800 
000002470110083000151000OSMAR MARSON                  M07061942409710180 RUA DR FLAQUER, 134 AP 105           CENTRO         SAO BERNARDO DO CAMPO SP4123-7017                                 2770033         04198271887 
000002480110083000155005SILVIO DA SILVA               M02071948109812210 RUA GABRIEL DE SOUZA, 1310           PARQUE ESPACIA SAO BERNARDO DO CAMPO SP4351-4991                                 5527929         12284700810 
000002490110083000155609ARIANE BERTO DA SILVA         F08041992209812210 RUA GABRIEL DE SOUZA, 1310           PARQUE ESPACIA SAO BERNARDO DO CAMPO SP451-4991                                  5527929                     
000002500110083000155013FATIMA APARECIDA B. DA SILVA  F22011973109812210 RUA GABRIEL DE SOUZA, 1310           PARQUE ESPACIA SAO BERNARDO DO CAMPO SP451-4991                                  24419619                    
000002510110083000155617ELVIS BERTO DA SILVA          M19021998209812210 RUA GABRIEL DE SOUZA, 1310           PARQUE ESPACIA SAO BERNARDO DO CAMPO SP451-4991                                  5527929                     
000002520110083000157008JULIAO LOPES GARCIA           M28011930109715020 RUA DR AMERICO BRASILIENSE, 7        CENTRO         SAO BERNARDO DO CAMPO SP4330-4069/                                2073602         06796133820 
000002530110083000157016JANDIRA BRANCALHAO GARCIA     F05051928109715020 RUA DR AMERICO BRASILIENSE, 7        CENTRO         SAO BERNARDO DO CAMPO SP4330-4069                                 17177605                    
000002540110083000158004ETORE LEONEL                  M08051939109771260 RUA MAJOR BENEDITO C.DO NASCI        NOVA PETROPOLI SAO BERNARDO DO CAMPO SP4123-0545                                 3043999         03747182887 
000002550110083000160009MARIA JOSE HENRIQUE           F15051940309715030 RUA BELA VISTA, 214 AP 21            CENTRO         SAO BERNARDO DO CAMPO SP4125-6427                                 2684328                     
000002560110083000163008FRANCISCO T. DE S. E SARTI    M19111944109710160 RUA CLARA BASSANI, 67                CENTRO         SAO BERNARDO DO CAMPO SP448-4990                                  3312530                     
000002570110083000164004ODETE CARVALHO FERREIRA       F09091916304707060 RUA JOAQUIM GUARANI, 151 AP.         JD.DAS ACACIAS SAO PAULO             SP531-3775                                  1725704                     
000002580110083000165000CARLOS ALBERTO CORREIA        M13121944409725740 RUA ADELINA SALVADORE BASSOLI        CENTRO         SAO BERNARDO DO CAMPO SP448-2343                                  4323384         05120802834 
000002590110083000165019RUTH FICHER CORREIA           F12071946109725740 RUA ADELINA SALVADORE BASSOLI        CENTRO         SAO BERNARDO DO CAMPO SP448-2343                                  17177306        11972654810 
000002600110083000166007FABIO MEIRELLES RIBEIRO       M10091944109770420 AV. IMPERADOR PEDRO II, 1190         NOVA PETROPOLI SAO BERNARDO DO CAMPO SP4125-8750                                 4995541         07002475800 
000002610110083000166015HELENI DE ANDRADE RIBEIRO     F14121946109770420 AV. IMPERADOR PEDRO II, 1190         NOVA PETROPOLI SAO BERNARDO DO CAMPO SP4125-8750                                 5372328         07002475800 
000002620110083000166902FABIANA DE ANDRADE RIBEIRO    F23121968209770420 AV. IMPERADOR PEDRO II, 1190         NOVA PETROPOLI SAO BERNARDO DO CAMPO SP4125-8750                                 19984089        14007708827 
000002630110083000166910FERNANDA DE ANDRADE RIBEIRO   F23061981209770420 AV. IMPERADOR PEDRO II, 1190         NOVA PETROPOLI SAO BERNARDO DO CAMPO SP4125-8750                                 338675218       30231486863 
000002640110083000167003JOSEPHA MOLINA PRIETO         F22011935409810260 AV. JOAO FIRMINO, 1229 AP 25         ASSUNCAO       SAO BERNARDO DO CAMPO SP4109-1271                                 4775814         04197615868 
000002650110083000169006JOSE GILBERTO VALDRIGHI       M18031941109726190 RUA SULU, 180                        JARDIM DO MAR  SAO BERNARDO DO CAMPO SP4125-5793                                 2697415         03498301853 
000002660110083000169014MARIA APARECIDA A. VALDRIGHI  F28091944109726190 RUA SULU, 180                        JARDIM DO MAR  SAO BERNARDO DO CAMPO SP4125-5793                                 3333183         14927572846 
000002670110083000172007AZOR PEREIRA                  M04121940237701000 RUA ASSIS FIGUEIREDO, 192 AP         CENTRO         POCOS DE CALDAS       MG(035) 3714                                7312618                     
000002680110083000172600LEONARDO AUGUSTO PEREIRA      M15121993237701000 RUA ASSIS FIGUEIREDO, 192 AP         CENTRO         POCOS DE CALDAS       MG(035) 3714                                7312618                     
000002690110083000173003EDVALDO DIAS CAMPODONE        M24041946109726420 RUA AURORA, 204                      ANCHIETA       SAO BERNARDO DO CAMPO SP4125-1975                                 3932004         04669509853 
000002700110083000173011ANA MARIA ZENORINI DIAS       F24051944109726420 RUA AURORA, 204                      ANCHIETA       SAO BERNARDO DO CAMPO SP4125-1975                                 4273332         04073118820 
000002710110083000175006ANGELO LOPES                  M25071939109760000 RUA DOS VIANAS, 616                  BAETA NEVES    SAO BERNARDO DO CAMPO SP4123-9113                                 4282857         05046955849 
000002720110083000175014YOLE FINCO LOPES              F23111942109760000 RUA DOS VIANAS, 616                  BAETA NEVES    SAO BERNARDO DO CAMPO SP4123-9113                                 7975964         17843306803 
000002730110083000177009JOAQUIM SONODA                M10011935109751470 RUA DR. AMANCIO DE CARVALHO,         BAETA NEVES    SAO BERNARDO DO CAMPO SP4330-1512                                 4107795         07001029815 
000002740110083000177017MIYOKO SONODA                 F03061934109751470 RUA DR. AMANCIO DE CARVALHO,         BAETA NEVES    SAO BERNARDO DO CAMPO SP4330-1512                                 4886470         67104843868 
000002750110083000178005TAIS TERESA BADDINI CAVINATO  F10021946109710160 RUA CLARA BASSANI, 51                CENTRO         SAO BERNARDO DO CAMPO SP4330-4928                                 3549146         05803594849 
000002760110083000178099ARMANDO CAVINATO FILHO        M05011942109710160 RUA CLARA BASSANI, 51                CENTRO         SAO BERNARDO DO CAMPO SP4330-4928                                 2670593         04196503853 
000002770110083000178900LEONARDO BADDINI CAVINATO     M11091976209710160 RUA CLARA BASSANI, 51                CENTRO         SAO BERNARDO DO CAMPO SP4330-4928                                 187780584       26098498857 
000002780110083000178919ALEXANDRE BADDINI CAVINATO    M23071974209710160 RUA CLARA BASSANI, 51                CENTRO         SAO BERNARDO DO CAMPO SP443-4928                                  187780596       19264606858 
000002790110083000179001TAECO TANAKA NAKANO           F11031945109850480 ESTRADA DA COOPERATIVA, 751          COOPERATIVA    SAO BERNARDO DO CAMPO SP4109-6768                                 3212242         00165378824 
000002800110083000179907HEIZO NAKANO NETO             M17021978209850480 ESTRADA DA COOPERATIVA, 751          COOPERATIVA    SAO BERNARDO DO CAMPO SP419-6768                                  23892722                    
000002810110083000180000ADEMIR TOLLER                 M04071947109715210 RUA VIRGINIA BATISTELLA GIUST        VILA SUZI      SAO BERNARDO DO CAMPO SP4127-1760                                 8257630         26941554800 
000002820110083000180018MARIA CLARA MEDEIROS TOLLER   F18091953109715210 RUA VIRGINIA BATISTELLA GIUST        VILA SUZI      SAO BERNARDO DO CAMPO SP4127-1760                                 6130137                     
000002830110083000180905ERICA CRISTINA TOLLER         F14061979209715210 RUA VIRGINIA BATISTELLA GIUST        VILA SUZI      SAO BERNARDO DO CAMPO SP4127-1760                                 306776807       26923776805 
000002840110083000180913CIBELY TOLLER                 F30071982209715210 RUA VIRGINIA BATISTELLA GIUST        VILA SUZI      SAO BERNARDO DO CAMPO SP4127-1760                                 8257630                     
000002850110083000180921THIAGO TOLLER                 M01091984209715210 RUA VIRGINIA BATISTELLA GIUST        VILA SUZI      SAO BERNARDO DO CAMPO SP4127-1760                                 8257630                     
000002860110083000181006NADIR APARECIDA P. ALBIERO    F06101944109624010 RUA LEAO XIII, 71                    PQ.STO.ANTONIO SAO BERNARDO DO CAMPO SP4368-3798                                 6346796                     
000002870110083000181090ARTHUR ALBIERO NETO           M02061944109624010 RUA LEAO XIII, 71                    PQ.STO.ANTONIO SAO BERNARDO DO CAMPO SP4368-3798                                 3369846                     
000002880110083000181901FERNANDA ALBIERO              F27051977209624010 RUA LEAO XIII, 71                    PQ.STO.ANTONIO SAO BERNARDO DO CAMPO SP4368-3798                                 22617592                    
000002890110083000182002JOSE FRANCISCO CAVALCANTI     M19051937109770290 RUA DOM LUIZ, 59                     NOVA PETROPOLI SAO BERNARDO DO CAMPO SP414-1217                                  3221802         03738175849 
000002900110083000182010OLGA SILVA CAVALCANTI         F10071939109770290 RUA DOM LUIZ, 59                     NOVA PETROPOLI SAO BERNARDO DO CAMPO SP414-1217                                  6967430                     
000002910110083000182908CAROLINA GALLO CAVALCANTI     F03061994209770290 RUA DOM LUIZ, 59                     NOVA PETROPOLI SAO BERNARDO DO CAMPO SP414-1217                                  15632895                    
000002920110083000183009JURANDIR PRESTES DE OLIVEIRA  M03081942109725310 RUA DO CRUZEIRO, 174                 VILA DUSI      SAO BERNARDO DO CAMPO SP4125-2131                                 3136540         03508331849 
000002930110083000183017JOSEFINA RONCOLETO PRESTES    F23081944109725310 RUA DO CRUZEIRO, 174                 VILA DUSI      SAO BERNARDO DO CAMPO SP4125-2131                                 10925129                    
000002940110083000183904CRISTIANE PRESTES DE OLIVEIRA F19111969209725310 RUA DO CRUZEIRO, 174                 VILA DUSI      SAO BERNARDO DO CAMPO SP4125-2131                                 187047157       11948018896 
000002950110083000183912SEBASTIANA G. DE OLIVEIRA     F02061917309725310 RUA DO CRUZEIRO, 174                 VILA DUSI      SAO BERNARDO DO CAMPO SP4125-2131                                 20717394                    
000002960110083000185001ANTONIO FERNANDES DE SOUZA    M12061948509911590 RUA PRINCESA LEOPOLDINA, 122         VILA CONCEIÇÃO DIADEMA               SP4044-4526                                 4266141         06041531804 
000002970110083000185907PAULO FERNANDO SANTOS DE SOUZ M25051979209634000 RUA JACQUEY, 468                     VL HELENA      SAO BERNARDO DO CAMPO SP9401-3412                                 28696567                    
000002980110083000185915ALEXIA VICTORIA S. DE SOUZA   F09102002209634000 RUA JACQUEY, 468                     VL HELENA      SAO BERNARDO DO CAMPO SP9401-3412                                 28569855                    
000002990110083000185923PAULA FERNANDA SANTOS DE SOUZ F16121981209634000 RUA JACQUEY, 468                     VL HELENA      SAO BERNARDO DO CAMPO SP9401-3412                                 28569855                    
000003000110083000185931GIOVANNA FERNANDA L. SOUZA    F27072001209634000 RUA JACQUEY, 468                     VL HELENA      SAO BERNARDO DO CAMPO SP9401-3412                                 341043767       06041531804 
000003010110083000185940BRANCA ROSA DE CASTRO SANTOS  F22071950109098003 AV. ALVARO GUIMARÃES, 631  AP        PLANALTO       SAO BERNARDO DO CAMPO SP6831-8220                                 5272719                     
000003020110083000186008HELIO ERNESTO SETTI           M08061938109710210 RUA MUNICIPAL, 193  AP 81 - 8        VILA A. MARQUE SAO BERNARDO DO CAMPO SP4125-2006                                 2691548         06069924800 
000003030110083000186016MAGALY MATTOS SETTI           F15121937109710210 RUA MUNICIPAL, 193  AP 81 - 8        VILA A. MARQUE SAO BERNARDO DO CAMPO SP4125-2006                                 4462643                     
000003040110083000186903FABIO SETTI                   M26121970209710210 RUA MUNICIPAL, 193  AP 81 - 8        VILA A. MARQUE SAO BERNARDO DO CAMPO SP4125-2006                                 20440690        15541218845 
000003050110083000195007ARMANDO SERGIO MAROTTI        M09091933111660970 RUA RIO BRANCO, 234 12º ANDAR        CENTRO         SÃO BERNARDO DO CAMPO SP(012) 3888                                2779020         09237909853 
000003060110083000195015JOANA THOMAZINI MAROTTI       F20011935111660970 RUA RIO BRANCO, 234 12º ANDAR        CENTRO         SÃO BERNARDO DO CAMPO SP(012) 3888                                8096201                     
000003070110083000195902ELIZA MAROTTI RODRIGUES       F09081963111660970 ESTRADA ABRA DE DENTRO, 1932         PEGORELLY      CARAGUATATUBA         SP(012)427-2                                15109409        05868707842 
000003080110083000195910ERIKA MAROTTI RODRIGUES       F09081988211660970 ESTRADA ABRA DE DENTRO, 1932         PEGORELLY      CARAGUATATUBA         SP(012)427-2                                468973497                   
000003090110083000195929GABRIELA MAROTTI ROCARDO      F11061986209850580 RUA ANTONIO DA COSTA LIMA, 37        JARDIM CLAUDIA SAO BERNARDO DO CAMPO SP4109-3348                                 401951741                   
000003100110083000197000ODAIR ROBERTO VERTAMATTI      M21051949109750110 RUA RICARDO BAPTISTA GERBELLI        JD. DO MAR     SAO BERNARDO DO CAMPO SP4125-4214                                 4257833         04191870815 
000003110110083000197018FATIMA APARECIDA VERTAMATTI   F16031953109750110 RUA RICARDO BAPTISTA GERBELLI        JD. DO MAR     SAO BERNARDO DO CAMPO SP4125-4214                                 7312655         17857316881 
000003120110083000197905SHEILA ALESSANDRA VERTEMATTI  F23071972109750110 RUA RICARDO BAPTISTA GERBELLI        JD. DO MAR     SAO BERNARDO DO CAMPO SP4125-4214                                 134263480       17857320803 
000003130110083000197913ROGERIO AUGUSTO VERTAMATTI    M01031977209750110 RUA RICARDO BAPTISTA GERBELLI        JD. DO MAR     SAO BERNARDO DO CAMPO SP4125-4214                                 134263492       26147871838 
000003140110083000197921MARIA ELISA ORLANDO           F27051931309750090 RUA BENEDITO DE ABREU FREIRE,        VL.MARGARIDA   SAO BERNARDO DO CAMPO SP448-2468                                  13430678        09324356887 
000003150110083000198006JOAO BROCHADO AGUIAR          M18111929113506720 AV. 16 A, 676                        JD. INDAIA     RIO CLARO             SP4127-3800                                 5999984         03628582849 
000003160110083000198014ANTONIA CANTAO AGUIAR         F18081934113506720 AV. 16 A, 676                        JD. INDAIA     RIO CLARO             SP4127-3800                                 4738194         00618786856 
000003170110083000199002TORU KANAZAWA                 M09041927109750360 RUA TASMAN, 290                      JARDIM DO MAR  SAO BERNARDO DO CAMPO SP4125-9470                                 1082131         03736741804 
000003180110083000199010YOUKO ADACHI KANAZAWA         F16121938109750360 RUA TASMAN, 290                      JARDIM DO MAR  SAO BERNARDO DO CAMPO SP4125-9470                                 3736682         25493815800 
000003190110083000199908CARLOS TADAO KANAZAWA         M14111975209750360 RUA TASMAN, 290                      JARDIM DO MAR  SAO BERNARDO DO CAMPO SP4125-9470                                 259441156       25094304836 
000003200110083000200000LIDIA MARTINHO DIAS           F03081922409725500 RUA MIGUEL ARCO E FLECHA, 170        VILA EUCLIDES  SAO BERNARDO DO CAMPO SP4125-7685                                 5766228         06220142853 
000003210110083000202003JORGE FERREIRA                M05101940109750460 RUA BANDA, 592                       JARDIM DO MAR  SAO BERNARDO DO CAMPO SP4122-1975                                 3009831                     
000003220110083000202011ANA MARIA FERREIRA            F09111949109750460 RUA BANDA, 592                       JARDIM DO MAR  SAO BERNARDO DO CAMPO SP4122-1975                                 5036335                     
000003230110083000202909MARIANA FERREIRA              F26051973209750460 RUA BANDA, 592                       JARDIM DO MAR  SAO BERNARDO DO CAMPO SP4122-1975                                 20310965                    
000003240110083000202917DEBORA FERREIRA               F23081974209750460 RUA BANDA, 592                       JARDIM DO MAR  SAO BERNARDO DO CAMPO SP4122-1975                                 20310806                    
000003250110083000202925GUSTAVO HENRIQUE FERREIRA     M26011978209750460 RUA BANDA, 592                       JARDIM DO MAR  SAO BERNARDO DO CAMPO SP4122-1975                                 30227506                    
000003260110083000205002MANOEL DA SILVA RODRIGUES     M13031945111740000 RUA GEZA HARY, 860                   REC BANDEIRANT ITANHAEM              SP(013)3425-                                3669224         07067194849 
000003270110083000205010LAURIDES BASSO RODRIGUES      F21021947111740000 RUA GEZA HARY, 860                   REC BANDEIRANT ITANHAEM              SP(013)425-3                                7975227         07067194849 
000003280110083000206009MARIA ELENA CABRINI LIBORIO   F24051948109770270 AV.IMPERATRIZ LEOPOLDINA,115         NOVA PETROPOLI SAO BERNARDO DO CAMPO SP4123-0856                                 4252129         08490323852 
000003290110083000207005JOSE LUIZ MONTEIRO DE TOLEDO  M10091943109770430 RUA PRINCESA ANTONIA, 46             NOVA PETROPOLI SAO BERNARDO DO CAMPO SP4122-5742                                 3938778         05379687849 
000003300110083000207013CELIA MARIA M. C. DE TOLEDO   F23051946109770430 RUA PRINCESA ANTONIA, 46             NOVA PETROPOLI SAO BERNARDO DO CAMPO SP4122-5742                                 3565355         05378354820 
000003310110083000211002NELO AUGUSTO SILVA            M13091929109750480 AV. ATLANTICA, 317                   JARDIM DO MAR  SAO BERNARDO DO CAMPO SP4330-4012                                 3434553         03543773887 
000003320110083000213005OLYMPIO INNOCENCIO DO A. NETT M08031931109750670 AV. LUCAS NOGUEIRA GARCEZ, 40        JARDIM DO MAR  SAO BERNARDO DO CAMPO SP4125-1260                                 20540970        03739473800 
000003330110083000213013NANCY ARAUJO GOMES DO AMARAL  F29031944109750670 AV. LUCAS NOGUEIRA GARCEZ, 40        JARDIM DO MAR  SAO BERNARDO DO CAMPO SP4125-1260                                 3589640                     
000003340110083000213609MARIA CRISTINA GOMES DO AMARA F26011969209750670 AV. LUCAS NOGUEIRA GARCEZ, 40        JARDIM DO MAR  SAO BERNARDO DO CAMPO SP4125-1260                                 21984666                    
000003350110083000213900ROSANA GOMES DO AMARAL        F30071972209750670 AV. LUCAS NOGUEIRA GARCEZ, 40        JARDIM DO MAR  SAO BERNARDO DO CAMPO SP448-1260                                  226176204       16775940807 
000003360110083000213919REGINA GOMES DO AMARAL        F30071972209750670 AV. LUCAS NOGUEIRA GARCEZ, 40        JARDIM DO MAR  SAO BERNARDO DO CAMPO SP448-1260                                  22617621        16775943814 
000003370110083000214001WALMIR GERALDO CALDEIRA       M19061944109725570 RUA OLAVO BILAC, 151                 JD OLAVO BILAC SAO BERNARDO DO CAMPO SP4330-2023                                 3476798         21061114872 
000003380110083000214010MIRIAM CALDEIRA               F29011946109725570 RUA OLAVO BILAC, 151                 JD OLAVO BILAC SAO BERNARDO DO CAMPO SP4330-2023                                 3524937                     
000003390110083000214907GIOVANA FIGUEIRA H. CALDEIRA  F01101980209725570 RUA OLAVO BILAC, 151                 JD OLAVO BILAC SAO BERNARDO DO CAMPO SP4330-2023                                 25877577                    
000003400110083000214915LUIGI FIGUEIRA HERDY CALDEIRA M30051983209725570 RUA OLAVO BILAC, 151                 JD OLAVO BILAC SAO BERNARDO DO CAMPO SP4330-2023                                 25877677                    
000003410110083000217000LOURDES MOYSES DIB            F21031942511065101 RUA EUCLIDES DA CUNHA, 220 AP        POMPEIA        SANTOS                SP(013) 3221                                4193274         03559173868 
000003420110083000218007CARLOS MARCON                 M22091934113460000 RUA WANDA BLANCO PEREIRA, 351        JD EUROPA      NOVA ODESSA           SP                                          2102113         05047536815 
000003430110083000218015DIVA FARIA MARCON             F20101938113460000 RUA WANDA BLANCO PEREIRA, 351        JD EUROPA      NOVA ODESSA           SP                                          9886515         19702031885 
000003440110083000219003ANEZIA FIRMINO FERREIRA       F13091939309791100 AV. VISCONDE DE CAIRU, 145           JARDIM SILVINA SAO BERNARDO DO CAMPO SP756-9150                                  6019493         18370074898 
000003450110083000221008TEREZINHA ELISABETE DEPOLLI   F20051949309770600 RUA AIRTON GOMES DE MIRANDA,         JD W SIMONSEN  SAO BERNARDO DO CAMPO SP7670-1846                                 4241361         05857385806 
000003460110083000222004ANTONIO VANZELLA              M09101933109750601 AV. INDICO, 819                      JARDIM DO MAR  SAO BERNARDO DO CAMPO SP4330-1660                                 1845636         01677233834 
000003470110083000225003ALVARO SILINGARDI             M04011948109890110 RUA RECIFE, 215                      PLANALTO       SAO BERNARDO DO CAMPO SP4341-4937/                                4257747         03559432804 
000003480110083000225011ADELINA ROSA SILINGARDI       F22011948109890110 RUA RECIFE, 215                      PLANALTO       SAO BERNARDO DO CAMPO SP4341-4937/                                6254188         15529945899 
000003490110083000225909CLAUDIA RODRIGUES SILINGARDI  F17121973109890110 RUA RECIFE, 215                      JD. GAGLIARD   SAO BERNARDO DO CAMPO SP4341-4937                                 226165498                   
000003500110083000225917LIVIA RODRIGUES SILINGARDI    F19072000209890110 RUA RECIFE, 215                      PLANALTO       SAO BERNARDO DO CAMPO SP759-4937                                  226165498                   
000003510110083000225925OTAVIO RODRIGUES SILINGARDI   M15072002209890110 RUA RECIFE, 215                      PLANALTO       SAO BERNARDO DO CAMPO SP4341-4937/                                226165498                   
000003520110083000226000PAULO DA ROCHA QUEIROZ        M01021940104114120 RUA COMENDADOR JULIO PEREIRA         VL MARIANA     SAO PAULO             SP5571-2693                                 24376577        03002721891 
000003530110083000226018IMACULADA VARELLA QUEIROZ     F16031944104114120 RUA COMENDADOR JULIO PEREIRA         VL MARIANA     SAO PAULO             SP5571-2693                                 3094199                     
000003540110083000227006CARLOS REIS ALVARES           M20101943109750170 RUA JOSE SETTI, 232                  JD 3 MARIAS    SAO BERNARDO DO CAMPO SP414-2335                                  4104361         07070845804 
000003550110083000227014IGNES BUENO ALVARES           F20021950109750170 RUA JOSE SETTI, 232                  JD 3 MARIAS    SAO BERNARDO DO CAMPO SP414-2335                                  5527754         19260672821 
000003560110083000231003GEALZI MARQUES PASSOS         M04041947109560600 RUA NOEL ROSA, 166 AP 42             SANTA MARIA    SAO CAETANO DO SUL    SP4220-3576                                 3652070         05042399887 
000003570110083000231607GLAUCE DUCI MARQUES PASSOS    F16121987209560600 RUA NOEL ROSA, 166 AP 42             SANTA MARIA    SAO CAETANO DO SUL    SP4220-3576                                 341812602                   
000003580110083000231909LUCIANA DE OLIVEIRA PASSOS    F07041972209820160 RUA RUA GIUSEPPE ULIANE,  CAS        JARDIM TRES MA SAO BERNARDO DO CAMPO SP4101-4225                                 21138879        15530532810 
000003590110083000231917FLAVIO DE OLIVEIRA PASSOS     M07041975209872050 RUA EUROPA, 364                      TABOAO         SAO BERNARDO DO CAMPO SP4363-2921                                 233310848       19274806809 
000003600110083000232000ANTONIO JOSE C. DE CASTRO     M15041932104081004 AVENIDA ARATÃS, 888  APTO 42-        INDIANÓPOLIS   SAO PAULO             SP5051-3249                                 1846226         03544567849 
000003610110083000232018ZAIRA BARBAN DE CASTRO        F31101937104081004 AVENIDA ARATÃS, 888  APTO 42-        INDIANÓPOLIS   SAO PAULO             SP5051-3249                                 2942207                     
000003620110083000233006WALTER LEONEL                 F22061936109771120 RUA PRINCESA MARIA AMELIA, 27        NOVA PETROPOLI SAO BERNARDO DO CAMPO SP4330-1618                                 2817450         04199464891 
000003630110083000233014PAULA ROSA TAVARES LEONEL     F31011943109771120 RUA PRINCESA MARIA AMELIA, 27        NOVA PETROPOLI SAO BERNARDO DO CAMPO SP4330-1618                                 2838785                     
000003640110083000234002MIGUEL FERNANDES PRIETO       M28101940109770420 AV. IMPERADOR PEDRO II, 1242         NOVA PETROPOLI SAO BERNARDO DO CAMPO SP4330-4103                                 2995259         05046939800 
000003650110083000234010IARA RINALDI FERNANDES        F17091942109770420 AV. IMPERADOR PEDRO II, 1242         NOVA PETROPOLI SAO BERNARDO DO CAMPO SP4330-4103                                 9449320         16124388812 
000003660110083000234908MARCOS RINALDI FERNANDES      M22031973209770420 AV. IMPERADOR PEDRO II, 1242         NOVA PETROPOLI SAO BERNARDO DO CAMPO SP4330-4103                                 17458899        16126261810 
000003670110083000234916LUCAS FERNANDES ZAMPLONIO     F07072003209770420 AV. IMPERADOR PEDRO II, 1242         NOVA PETROPOLI SAO BERNARDO DO CAMPO SP4330-4103                                 174588987                   
000003680110083000235009KOITI SAKAI                   M11021933109632000 RUA IDA LEONI CLETO, 334             RUDGE RAMOS    SAO BERNARDO DO CAMPO SP4368-5010                                 1848978         04404165820 
000003690110083000235017MARIA IZABEL SAKAI            F16021949109632000 RUA IDA LEONI CLETO, 334             RUDGE RAMOS    SAO BERNARDO DO CAMPO SP4368-5010                                 226169261       26418491866 
000003700110083000235904YURI FATIMA SAKAI             F23111979209632000 RUA IDA LEONI CLETO, 334             RUDGE RAMOS    SAO BERNARDO DO CAMPO SP4368-5010                                 297527010       26051390855 
000003710110083000235912AKEMI SAKAI                   F05061977209632000 RUA IDA LEONI CLETO, 334             RUDGE RAMOS    SAO BERNARDO DO CAMPO SP4368-5010                                 293568625       25939455832 
000003720110083000237001RUI BURY                      M30061952109720550 RUA ANGELA FRANCHINI, 261            CJ.H. FRANCHIN SAO BERNARDO DO CAMPO SP4339-4186                                 4264778         37308270815 
000003730110083000237010REGINA CELIA AP. CORREA BURY  F01101954109720550 RUA ANGELA FRANCHINI, 261            CJ.H. FRANCHIN SAO BERNARDO DO CAMPO SP4339-4186                                 7359436                     
000003740110083000237907BEATRIZ CORREA BURY           F01041978209720550 RUA ANGELA FRANCHINI, 261            CJ.H. FRANCHIN SAO BERNARDO DO CAMPO SP448-4186 /                                273199687                   
000003750110083000239004JOSE AUGUSTO PEREIRA DAMASIO  M27111942111750000 AVENIDA JOSEDY, 606                  BALNEARIO JOSE PERUIBE               SP(***13)345                                3597256         07050461849 
000003760110083000239012IDALINA CLEMENTE DAMASIO      F15041945111750000 AVENIDA JOSEDY, 606                  BALNEARIO JOSE PERUIBE               SP(***13)345                                6600361                     
000003770110083000240002ANTONIO REIES DE MIRANDA      M10051940109750170 RUA JOSE SETTI, 44                   JD. TRES MARIA SAO BERNARDO DO CAMPO SP4332-2553                                 2839111         03628752868 
000003780110083000240010NEIDE SCHNEIDER DE MIRANDA    F15071941109750170 RUA JOSE SETTI, 44                   JD. TRES MARIA SAO BERNARDO DO CAMPO SP4332-2553                                 5052319         19236371850 
000003790110083000240606SONIA REGINA BALIEIRO         F06011960209750170 RUA JOSE SETTI, 44                   JD. TRES MARIA SAO BERNARDO DO CAMPO SP4332-2553                                 6436646         192363888   
000003800110083000241009YOLANDA BONFIGLIOLI GUARINI   F28081921309726100 RUA MYRIAN DORA ROSSI, 100 AP        CHACARA INGLES SAO BERNARDO DO CAMPO SP4330-1407                                 12382023                    
000003810110083000242005TEIITI SAKAI                  M11071939109635080 RUA MAURICIO JACKEY, 238 -  8        RUDGE RAMOS    SBCAMPO               SP4177-4650                                 2766775         04668596868 
000003820110083000242609CIRO MENDES BARBOSA SAKAI     M31071988209635080 RUA MAURICIO JACKEY, 238 -  8        RUDGE RAMOS    SBCAMPO               SP4177-4650                                 2766775                     
000003830110083000242617CARLOS ISSAO ELEUTERIO SAKAI  M04061989209635080 RUA MAURICIO JACKEY, 238 -  8        RUDGE RAMOS    SBCAMPO               SP4177-4650                                 346269660                   
000003840110083000242021MARIA APARECIDA ELEUTERIO     F30071947709913200 RUA VEREADOR JORGE FERREIRA,         VL. ELIDA      SAO BERNARDO DO CAMPO SP4177-3908                                 15405728        07987082805 
000003850110083000242900RICARDO ELEUTERIO SAKAI       M06041984209626000 RUA MINISTRO OSWALDO ARANHA,         RUDGE RAMOS    SAO BERNARDO DO CAMPO SP4177-3908                                 346267596                   
000003860110083000242919RODOLFO MENDES BARBOSA SAKAI  M03071985209913200 RUA VEREADOR JORGE FERREIRA,         VL. ELIDA      DIADEMA               SP4054-1892                                 330347603       34034602821 
000003870110083000244008JEANETE CARATIN STUCHI        F07121943309780001 RUA TIRADENTES, 598 CASA 1           SANTA TEREZINH SAO BERNARDO DO CAMPO SP4127-1286                                 6408923         05061547853 
000003880110083000245004CLEIDE MARIA MATTEI RIOS      F11031947109771110 ALAMEDA PRINCESA ISABEL, 188         NOVA PETROPOLI SAO BERNARDO DO CAMPO SP4330-1942                                 4490282         05060540804 
000003890110083000245098RENATO RIOS                   M18031945109771110 ALAMEDA PRINCESA ISABEL, 188         NOVA PETROPOLI SAO BERNARDO DO CAMPO SP4330-1942                                 9198567         44388756849 
000003900110083000245900DANIELA MATTEI RIOS           F03111978209771110 ALAMEDA PRINCESA ISABEL, 188         NOVA PETROPOLI SAO BERNARDO DO CAMPO SP4330-1942                                 29414190        27230820839 
000003910110083000245918RENATO MATTEI RIOS            M24071980209771110 ALAMEDA PRINCESA ISABEL, 188         NOVA PETROPOLI SAO BERNARDO DO CAMPO SP4330-1942                                 233557210       27854700877 
000003920110083000246000EDI LIAMAR PASIN CAPARROS     F20061946109770320 RUA DOM PAULO MARIANO, 266           NOVA PETROPOLI SAO BERNARDO DO CAMPO SP4125-2254                                 3459602         04187423834 
000003930110083000246094JOSE MARIA CAPARROS RODRIGUES M13111943109770320 RUA DOM PAULO MARIANO, 266           NOVA PETROPOLI SAO BERNARDO DO CAMPO SP4125-2254                                 698382          04187415815 
000003940110083000246906RICARDO PASIN CAPARROS        M03011977209770320 RUA DOM PAULO MARIANO, 266           NOVA PETROPOLI SAO BERNARDO DO CAMPO SP4125-2254                                 201908074       26333698806 
000003950110083000247007ARMANDO MEDULI                M28091945109770350 AVENIDA PAULO AFONSO, 435            NOVA PETROPOLI SAO BERNARDO DO CAMPO SP9919-9020/                                5153855                     
000003960110083000247015DEVANIL PINTO MEDULI          F1807195414330015  AVENIDA PAULO AFONSO, 435            NOVA PETROPOLI SAO BERNARDO DO CAMPO SP9919-9020/                                8767519                     
000003970110083000247902CINTIA MEDULI                 F03041982209751450 RUA BARRETOS, 177                    BAETA NEVES    SAO BERNARDO DO CAMPO SP                                          5153855                     
000003980110083000247910CAMILA MEDULI                 F11061984209751450 RUA BARRETOS, 177                    BAETA NEVES    SAO BERNARDO DO CAMPO SP                                          5153855                     
000003990110083000249000PAULO MONACO PRADO            M19071918109015020 RUA MONTE CASSEROS, 104 AP 64        CENTRO         SANTO ANDRE           SP4990-7157                                 4612759         03048802800 
000004000110083000249018LUCIA DOMINGOS PRADO          F30061932109015020 RUA MONTE CASSEROS, 104 AP 64        CENTRO         SANTO ANDRE           SP4990-7157                                 4775783                     
000004010110083000250008ITOR GERMANO SILVA            M26081943109725280 RUA DARIO BECHARA, 15                VILA DUSI      SAO BERNARDO DO CAMPO SP4125-2364                                 3728884         05456975815 
000004020110083000250016MARIA ISABEL PINOTTI SILVA    F11101946109725280 RUA DARIO BECHARA, 15                VILA DUSI      SAO BERNARDO DO CAMPO SP4125-2364                                 53640688        29183296816 
000004030110083000251004IGNEZ BUENO PERANOVICH        F08041932309715030 RIA BELA VISTA, 191  APTO 22         CENTRO         SAO BERNARDO DO CAMPO SP4330-9260                                 113591597       27233939845 
000004040110083000252000ARVELINO MONTEIRO DE LIMA     M26071926109750320 RUA SARGACOS, 160                    JARDIM DO MAR  SAO BERNARDO DO CAMPO SP4125-9881                                 4312964         05047722872 
000004050110083000252019INES DE LIMA                  F25011933109750320 RUA SARGACOS, 160                    JARDIM DO MAR  SAO BERNARDO DO CAMPO SP4125-9881                                 9200485         19930786827 
000004060110083000253007RAYMOND MICHEL BRETONES       M22031934309750330 RUA ARAL, 101                        JARDIM DO MAR  SAO BERNARDO DO CAMPO SP4125-9793                                 1299808         04195299853 
000004070110083000253902NATALIA MARIA BRETONES SOUSA  F16051988209750330 RUA ARAL, 101                        JARDIM DO MAR  SAO BERNARDO DO CAMPO SP4125-9793                                 336189539                   
000004080110083000254003GUILHERME LUIZ DE LIMA        M05101948109725500 RUA MIGUEL ARCO E FLEXA, 133         VILA EUCLIDES  SAO BERNARDO DO CAMPO SP4330-1017                                 4543578         21058229834 
000004090110083000254011OFELIA MIELE DE LIMA          F30091948109725500 RUA MIGUEL ARCO E FLEXA, 133         VILA EUCLIDES  SAO BERNARDO DO CAMPO SP4330-1017                                 4316222         24875285833 
000004100110083000254909DANIELA MIELE DE LIMA         F05011973209725500 RUA MIGUEL ARCO E FLEXA, 133         VILA EUCLIDES  SAO BERNARDO DO CAMPO SP4330-1017                                 226610615       19218793861 
000004110110083000254917FABIANA MIELE DE LIMA         F23121976209725500 RUA MIGUEL ARCO E FLEXA, 133         VILA EUCLIDES  SAO BERNARDO DO CAMPO SP4330-1017                                 27253223        26632321810 
000004120110083000254925JULIANA MIELE DE LIMA         F01121978209725500 RUA MIGUEL ARCO E FLEXA, 133         VILA EUCLIDES  SAO BERNARDO DO CAMPO SP4330-1017                                 27398567        28314922897 
000004130110083000256006ANTONIO CARLOS SIQUEIRA       M01071946109720440 RUA FREI GASPAR, 711 AP. 11          V.S.RITA CASSI SAO BERNARDO DO CAMPO SP4339-6541                                 2956392         06801323849 
000004140110083000256014ANA MARIA FRANCO SIQUEIRA     F13031949109720440 RUA FREI GASPAR, 711 AP. 11          V.S.RITA CASSI SAO BERNARDO DO CAMPO SP4339-6541                                 6481559                     
000004150110083000256901IGOR FRANCO SIQUEIRA          M07081978209720440 RUA FREI GASPAR, 711 AP. 11          V.S.RITA CASSI SAO BERNARDO DO CAMPO SP4339-6541                                 200843886                   
000004160110083000256910CLARA ALVES DE SOUZA SIQUEIRA F30041923313465000 RUA CUBA, 1046                       VL. FREZZARIN  AMERICANA             SP                                          6565837         10750549823 
000004170110083000256928IVAN FRANCO SIQUEIRA          M05031980209720440 RUA FREI GASPAR, 711 AP. 11          V.S.RITA CASSI SAO BERNARDO DO CAMPO SP4339-6541                                 20084387        27649285804 
000004180110083000261000MARIA GOMES SANTOS            F01061936309760230 RUA TAUBATE, 96                      BAETA NEVES    SAO BERNARDO DO CAMPO SP4330-1868                                 106948878       52979873853 
000004190110083000262006AMELIA PEDROZO DA MATA SOUZA  F30071932311444230 RUA DAS ACACIAS, 178                 BALN.PERNAMBUC GUARUJA               SP(013) 353-                                2519616                     
000004200110083000264009LUIZ CARLOS DE ANDRADE        M28021948109770272 AV. IMPERATRIZ LEOPOLDINA, 10        NOVA PETROPOLI SAO BERNARDO DO CAMPO SP448-4868                                  3992419                     
000004210110083000264602VIRGILIO DE OLIVEIRA ANDRADE  M20061926109720410 RUA DARIO LUIZ SETTI, 220            CENTRO         SAO BERNARDO DO CAMPO SP4339-1134                                 38615587        22154582834 
000004220110083000265005MUNYR BUNEMER                 M20011936109710210 RUA MUNICIPAL, 84 AP. 50             CENTRO         SAO BERNARDO DO CAMPO SP4125-2495                                 18503858        01667734849 
000004230110083000265013MARIA ANGELICA BUNEMER        F20111943109710210 RUA MUNICIPAL, 84 AP. 50             CENTRO         SAO BERNARDO DO CAMPO SP4125-2495                                 5509814         15539769830 
000004240110083000265900MARISTELA BUNEMER             F26041967209710210 RUA MUNICIPAL, 84 AP. 50             CENTRO         SAO BERNARDO DO CAMPO SP4125-2495                                 18779219        16127754895 
000004250110083000267008MANOEL ALFREDO DE LIMA        M30091926109770000 AV FRANCISCO PRESTES MAIA, 32        CENTRO         SAO BERNARDO DO CAMPO SP4125-1352                                 4280379         03543650882 
000004260110083000267016LAUDICEA DA SILVA LIMA        F26091937109770000 AV FRANCISCO PRESTES MAIA, 32        CENTRO         SAO BERNARDO DO CAMPO SP4125-1352                                 5910062                     
000004270110083000270009HEINZ GEORG ROBERT FRANK      M29011935109853100 RUA DOIS, 200                        ALVARENGA      SAO BERNARDO DO CAMPO SP4342-2675                                 2196077         05458773853 
000004280110083000270017MARIA BERNARDETE DE S. FRANK  F15041958109853100 RUA DOIS, 200                        ALVARENGA      SAO BERNARDO DO CAMPO SP4342-2675                                 12415079        27122928802 
000004290110083000270602KARINA FRANK                  F11121987209853100 RUA DOIS, 200                        ALVARENGA      SAO BERNARDO DO CAMPO SP4342-2675                                 338525762                   
000004300110083000270904KARIN FRANK                   F28101983209853100 RUA DOIS, 200                        ALVARENGA      SAO BERNARDO DO CAMPO SP7689-3647                                 338525683                   
000004310110083000273008DIRCE PEREIRA GUIMARAES       F26091924709740900 AV.SENADOR VERGUEIRO,2693 BLC        RUDGE RAMOS    SAO BERNARDO DO CAMPO SP4365-4897                                 34121936        33539740830 
000004320110083000275000WALTER GOMES MIRANDA          M15111934109770420 AV. IMPERADOR PEDRO II, 902          NOVA PETROPOLI SAO BERNARDO DO CAMPO SP4330-4916                                 2331245         01673661815 
000004330110083000275019HELENA TONDI MIRANDA          F06071930109770420 AV. IMPERADOR PEDRO II, 902          NOVA PETROPOLI SAO BERNARDO DO CAMPO SP4330-4916                                 3005187                     
000004340110083000276007MARIA JOSE DA SILVA PERNAMBUC F28051933409751350 RUA AMPARO, 155 AP 14                BAETA NEVES    SAO BERNARDO DO CAMPO SP4125-3920                                 4677528         93782527887 
000004350110083000276902FRANCISCO C. S. PERNAMBUCO    M03081956209751350 RUA AMPARO, 155 AP 14                BAETA NEVES    SAO BERNARDO DO CAMPO SP4125-3920                                 8516232         95115374820 
000004360110083000278000SIDNEI PROSPERO               M08111943109770350 AV PAULO AFONSO, 365                 NOVA PETROPOLI SAO BERNARDO DO CAMPO SP4330-2680                                 30257244        04188624868 
000004370110083000278018NELI LURDES VERSOLATO PROSPER F04021949109770350 AV PAULO AFONSO, 365                 NOVA PETROPOLI SAO BERNARDO DO CAMPO SP4330-2680                                 8256462                     
000004380110083000278905CRISTIANE INES PROSPERO       F03011977209770350 AV PAULO AFONSO, 365                 NOVA PETROPOLI SAO BERNARDO DO CAMPO SP4330-2680                                 281670535       25189515800 
000004390110083000278913JOSEPHA COPERSKY VERSOLATTO   F26041913109770350 AV PAULO AFONSO, 365                 NOVA PETROPOLI SAO BERNARDO DO CAMPO SP4330-2680                                 10404411                    
000004400110083000278921DANIELE PROSPERO              F22031981209770350 AV PAULO AFONSO, 365                 NOVA PETROPOLI SAO BERNARDO DO CAMPO SP4330-2680                                 301585830       21958828831 
000004410110083000278930TIAGO LUIS PROSPERO           M06051985209770350 AV PAULO AFONSO, 365                 NOVA PETROPOLI SAO BERNARDO DO CAMPO SP4330-2680                                 443521086                   
000004420110083000279006EVELYN JANE HERTEL TIRAPELLI  F11071941405726110 RUA JOSE COIMBRA, 333  APTO 2        MORUMBI        SAO PAULO             SP3501-1460                                 2990759         59139463834 
000004430110083000279901CARLOS MARECHIARO TIRAPELLI   M28071970209780595 RUA HELENA APARECIDA SECOL, 2        JARDIM PALERMO SAO BERNARDO DO CAMPO SP4127-5331                                 18703285                    
000004440110083000279910MARILA TERESA M. TIRAPELLI    F16051973209726412 RUA CONTINENTAL, 1000 - 142          VILA MARLENE   SAO BERNARDO DO CAMPO SP4125-4654                                 20715243                    
000004450110083000279928MARIA VITORIA TIRAPELLI RAMOS F29102001209830700 RUA PADRE BENTO DIAS PACHECO,        JD. BOA VISTA  SAO BERNARDO DO CAMPO SP4101-9419                                 20715243                    
000004460110083000279936JOAO GUILHERME TIRAPELLI RAMO M29102001209830700 RUA PADRE BENTO DIAS PACHECO,        JD. BOA VISTA  SAO BERNARDO DO CAMPO SP4101-9419                                 20715243                    
000004470110083000282007CELIA REITER ZANINI           F03041946309736590 RUA CABREUVA, 63  AP 14              VL.HELENA      SAO BERNARDO DO CAMPO SP4367-2895                                 5938986         00434143898 
000004480110083000283003AMILCAR LOTTO                 M21071940309770550 RUA CIDADE DE SAO SEBASTIAO,         JD.W.SIMONSEN  SAO BERNARDO DO CAMPO SP4330-5389                                 1563535         05043395834 
000004490110083000285006MARIA GAGLIARDI ALVES         F20071918309770320 RUA DOM PAULO MARIANO, 175           NOVA PETROPOLI SAO BERNARDO DO CAMPO SP4330-1927                                 5527605         17244799896 
000004500110083000286002UBIRAJARA DOS SANTOS          M03091925109715190 RUA JOAO CAVINATO, 60                JARDIM PORTUGA SAO BERNARDO DO CAMPO SP4345-2925                                 2907696         06065228834 
000004510110083000286010MARIA DE LOURDES DEPOLI SANTO F04051934109715190 RUA JOAO CAVINATO, 60                JARDIM PORTUGA SAO BERNARDO DO CAMPO SP4345-2925                                 5098764         18035199838 
000004520110083000287009ROZIMERY DE MEDEIROS BEBER    F27121946309751440 RUA BAURU, 367                       BAETA NEVES    SAO BERNARDO DO CAMPO SP4122-2014                                 7861827         24676857802 
000004530110083000287904CAROLINA DE MEDEIROS BEBER    M16031979209751440 RUA BAURU, 367                       BAETA NEVES    SAO BERNARDO DO CAMPO SP448-1530                                  17458883                    
000004540110083000289001RINALDO ROSSI                 M28041948109770330 ALAMEDA TERESA CRISTINA, 920         NOVA PETROPOLI SAO BERNARDO DO CAMPO SP4332-8440                                 3918197         08157510872 
